:10000000A5687ACEB8610100C807000005060B009C
:10001000031001253C400085000000004000005F07
:100020004700000100040D00FFFC00000000005428
:10003000000306090C0F1215181B1E21262B302851
:10004000000000000000000895090000000000E822
:100050007E0B0000000000C88E100000000000A809
:100060009E1500000000009800000000000000A0A5
:1000700083000000000000A86C010000000000B038
:1000800041020000000000B816030000000000C09C
:10009000BB030000000000C896040000000000D070
:1000A00053050000000000D810060000000000E02A
:1000B000CD060000000000E86C070000000000F022
:1000C000FF070000000000F88608000000000000A4
:1000D0000E09000000000083000000000000000185
:1000E0000101010101010101010101010101010100
:1000F00001010101010101010101010101010101F0
:1001000001010101010101010101010101010101DF
:1001100001010101010101010101010101010101CF
:1040D00001010101010101010101010101010100D1
:1040E00000000000000000000000000000000000D0
:1040F00000000000000000000000000000000000C0
:1041000000000000000000000000000000000000AF
:10411000000000000000000000000000000000009F
:10412000000000000000000000000000000000008F
:10413000000000000000000000000000000000007F
:10414000000000000000000000000000000000006F
:10415000000000000000000000000000000000005F
:10416000000000000000000000000000000000004F
:10417000000000000000000000000000000000003F
:10418000000000000000000000000000000000002F
:10419000000000000000000000000000000000001F
:1041A000000000000000000000000000000000000F
:1041B00000000000000000000000000000000000FF
:1041C00000000000000000000000000000000000EF
:1041D00000000000000000000000000000000000DF
:1041E00000000000000000000000000000000000CF
:1041F00000000000000000000000000000000000BF
:1042000000000000000000000000000000000000AE
:10421000000000000000000000000000000000009E
:10422000000000000000000000000000000000008E
:10423000000000000000000000000000000000007E
:10424000000000000000000000000000000000006E
:10425000000000000000000000000000000000005E
:10426000000000000000000000000000000000004E
:10427000000000000000000000000000000000003E
:10428000000000000000000000000000000000002E
:10429000000000000000000000000000000000001E
:1042A000000000000000000000000000000000000E
:1042B00000000000000000000000000000000000FE
:1042C00000000000000000000000000000000000EE
:1042D00000000000000000000000000000000002DC
:1042E00002020202020202020202020202020202AE
:1042F000020202020202020202020202020202029E
:10430000020202020202020202020202020202028D
:10431000020202020202020202020202020202027D
:1082D0000202020202020202020202020202020080
:1082E000000000000000000000000000000000008E
:1082F000000000000000000000000000000000007E
:10830000000000000000000000000000000000006D
:10831000000000000000000000000000000000005D
:10832000000000000000000000000000000000004D
:10833000000000000000000000000000000000003D
:10834000000000000000000000000000000000002D
:10835000000000000000000000000000000000001D
:10836000000000000000000000000000000000000D
:1083700000000000000000000000000000000000FD
:1083800000000000000000000000000000000000ED
:1083900000000000000000000000000000000000DD
:1083A00000000000000000000000000000000000CD
:1083B00000000000000000000000000000000000BD
:1083C00000000000000000000000000000000000AD
:1083D000000000000000000000000000000000E9B4
:1083E0000000000000000001010101010101010184
:1083F000010101010101010101010101010101016D
:10840000010101010101010101010101010101015C
:10841000010101010101010101010101010101014C
:10842000010101010101010101010101010101013C
:10BAE000010101010101010000000000000000004F
:10BAF0000000000000000000000000000000000046
:10BB00000000000000000000000000000000000035
:10BB10000000000000000000000000000000000025
:10BB20000000000000000000000000000000000015
:10BEE0000000000000000002020202020202020240
:10BEF0000202020202020202020202020202020222
:10BF00000202020202020202020202020202020211
:10BF10000202020202020202020202020202020201
:10BF200002020202020202020202020202020202F1
:10F5E000020202020202020000000000000000000D
:10F5F000000000000000000000000000000000000B
:10F6000000000000000000000000000000000000FA
:10F6100000000000000000000000000000000000EA
:10F6200000000000000000000000000000000000DA
:10F9E000000000000000000101010101010101010E
:10F9F00001010101010101010101010101010101F7
:10FA000001010101010101010101010101010101E6
:10FA100001010101010101010101010101010101D6
:10FA200001010101010101010101010101010101C6
:020000021000EC
:1030E00001010101010101000000000000000000D9
:1030F00000000000000000000000000000000000D0
:1031000000000000000000000000000000000000BF
:1031100000000000000000000000000000000000AF
:10312000000000000000000000000000000000009F
:1034E00000000000000000020202020202020202CA
:1034F00002020202020202020202020202020202AC
:10350000020202020202020202020202020202029B
:10351000020202020202020202020202020202028B
:10352000020202020202020202020202020202027B
:106BE0000202020202020200000000000000000097
:106BF0000000000000000000000000000000000095
:106C00000000000000000000000000000000000084
:106C10000000000000000000000000000000000074
:106C20000000000000000000000000000000000064
:106C30000000000000000000000000000000000054
:106C40000000000000000000000000000000000044
:106C50000000000000000000000000000000000034
:106C60000000000000000000000000000000000024
:106C70000000000000000000000000000000000014
:106C80000000000000000000000000000000000004
:106C900000000000000000000000000000000000F4
:106CA00000000000000000000000000000000000E4
:106CB00000000000000000000000000000000000D4
:106CC00000000000000000000000000000000000C4
:106CD00000000000000000000000000000000000B4
:106CE00000000000000000D50000000000000001CE
:106CF0000101010101010101010101010101010184
:106D00000101010101010101010101010101010173
:106D10000101010101010101010101010101010163
:106D20000101010101010101010101010101010153
:109EE0000101010101010101010101010101010063
:109EF0000000000000000000000000000000000062
:109F00000000000000000000000000000000000051
:109F10000000000000000000000000000000000041
:109F20000000000000000000000000000000000031
:10A2E000000000000000000000000000000000026C
:10A2F000020202020202020202020202020202023E
:10A30000020202020202020202020202020202022D
:10A31000020202020202020202020202020202021D
:10A32000020202020202020202020202020202020D
:10D4E000020202020202020202020202020202001E
:10D4F000000000000000000000000000000000002C
:10D50000000000000000000000000000000000001B
:10D51000000000000000000000000000000000000B
:10D5200000000000000000000000000000000000FB
:10D8E0000000000000000000000000000000000137
:10D8F0000101010101010101010101010101010118
:10D900000101010101010101010101010101010107
:10D9100001010101010101010101010101010101F7
:10D9200001010101010101010101010101010101E7
:020000022000DC
:100AE00001010101010101010101010101010100F7
:100AF00000000000000000000000000000000000F6
:100B000000000000000000000000000000000000E5
:100B100000000000000000000000000000000000D5
:100B200000000000000000000000000000000000C5
:100EE0000000000000000000000000000000000200
:100EF00002020202020202020202020202020202D2
:100F000002020202020202020202020202020202C1
:100F100002020202020202020202020202020202B1
:100F200002020202020202020202020202020202A1
:1040E00002020202020202020202020202020200B2
:1040F00000000000000000000000000000000000C0
:1041000000000000000000000000000000000000AF
:10411000000000000000000000000000000000009F
:10412000000000000000000000000000000000008F
:10413000000000000000000000000000000000007F
:10414000000000000000000000000000000000006F
:10415000000000000000000000000000000000005F
:10416000000000000000000000000000000000004F
:10417000000000000000000000000000000000003F
:10418000000000000000000000000000000000002F
:10419000000000000000000000000000000000001F
:1041A000000000000000000000000000000000000F
:1041B00000000000000000000000000000000000FF
:1041C00000000000000000000000000000000000EF
:1041D00000000000000000000000000000000000DF
:1041E000000000000000000000000000000000D5FA
:1041F00000000000000000010101010101010101B6
:10420000010101010101010101010101010101019E
:10421000010101010101010101010101010101018E
:10422000010101010101010101010101010101017E
:10423000010101010101010101010101010101016E
:1073F0000101010101010100000000000000000086
:10740000000000000000000000000000000000007C
:10741000000000000000000000000000000000006C
:10742000000000000000000000000000000000005C
:10743000000000000000000000000000000000004C
:1077F0000000000000000002020202020202020277
:107800000202020202020202020202020202020258
:107810000202020202020202020202020202020248
:107820000202020202020202020202020202020238
:107830000202020202020202020202020202020228
:10A9F0000202020202020200000000000000000049
:10AA00000000000000000000000000000000000046
:10AA10000000000000000000000000000000000036
:10AA20000000000000000000000000000000000026
:10AA30000000000000000000000000000000000016
:10ADF000000000000000000101010101010101014A
:10AE00000101010101010101010101010101010132
:10AE10000101010101010101010101010101010122
:10AE20000101010101010101010101010101010112
:10AE30000101010101010101010101010101010102
:10DFF000010101010101010000000000000000001A
:10E000000000000000000000000000000000000010
:10E010000000000000000000000000000000000000
:10E0200000000000000000000000000000000000F0
:10E0300000000000000000000000000000000000E0
:10E3F000000000000000000202020202020202020B
:10E4000002020202020202020202020202020202EC
:10E4100002020202020202020202020202020202DC
:10E4200002020202020202020202020202020202CC
:10E4300002020202020202020202020202020202BC
:020000023000CC
:1015F00002020202020202000000000000000000DD
:1016000000000000000000000000000000000000DA
:1016100000000000000000000000000000000000CA
:1016200000000000000000000000000000000000BA
:1016300000000000000000000000000000000000AA
:10164000000000000000000000000000000000009A
:10165000000000000000000000000000000000008A
:10166000000000000000000000000000000000007A
:10167000000000000000000000000000000000006A
:10168000000000000000000000000000000000005A
:10169000000000000000000000000000000000004A
:1016A000000000000000000000000000000000003A
:1016B000000000000000000000000000000000002A
:1016C000000000000000000000000000000000001A
:1016D000000000000000000000000000000000000A
:1016E00000000000000000000000000000000000FA
:1016F00000000000000000A5000000000000000144
:1017000001010101010101010101010101010101C9
:1017100001010101010101010101010101010101B9
:1017200001010101010101010101010101010101A9
:101730000101010101010101010101010101010199
:103CF00001010101010101010101010101010100B5
:103D000000000000000000000000000000000000B3
:103D100000000000000000000000000000000000A3
:103D20000000000000000000000000000000000093
:103D30000000000000000000000000000000000083
:1040F00000000000000000000000000000000002BE
:10410000020202020202020202020202020202028F
:10411000020202020202020202020202020202027F
:10412000020202020202020202020202020202026F
:10413000020202020202020202020202020202025F
:1066F000020202020202020202020202020202007C
:106700000000000000000000000000000000000089
:106710000000000000000000000000000000000079
:106720000000000000000000000000000000000069
:106730000000000000000000000000000000000059
:106AF0000000000000000000000000000000000195
:106B00000101010101010101010101010101010175
:106B10000101010101010101010101010101010165
:106B20000101010101010101010101010101010155
:106B30000101010101010101010101010101010145
:1090F0000101010101010101010101010101010061
:10910000000000000000000000000000000000005F
:10911000000000000000000000000000000000004F
:10912000000000000000000000000000000000003F
:10913000000000000000000000000000000000002F
:1094F000000000000000000000000000000000026A
:10950000020202020202020202020202020202023B
:10951000020202020202020202020202020202022B
:10952000020202020202020202020202020202021B
:10953000020202020202020202020202020202020B
:10BAF0000202020202020202020202020202020028
:10BB00000000000000000000000000000000000035
:10BB10000000000000000000000000000000000025
:10BB20000000000000000000000000000000000015
:10BB30000000000000000000000000000000000005
:10BB400000000000000000000000000000000000F5
:10BB500000000000000000000000000000000000E5
:10BB600000000000000000000000000000000000D5
:10BB700000000000000000000000000000000000C5
:10BB800000000000000000000000000000000000B5
:10BB900000000000000000000000000000000000A5
:10BBA0000000000000000000000000000000000095
:10BBB0000000000000000000000000000000000085
:10BBC0000000000000000000000000000000000075
:10BBD0000000000000000000000000000000000065
:10BBE0000000000000000000000000000000000055
:10BBF000000000000000000000000000000000DB6A
:10BC0000000000000000000101010101010101012B
:10BC10000101010101010101010101010101010114
:10BC20000101010101010101010101010101010104
:10BC300001010101010101010101010101010101F4
:10BC400001010101010101010101010101010101E4
:10DD0000010101010101010000000000000000000C
:10DD10000000000000000000000000000000000003
:10DD200000000000000000000000000000000000F3
:10DD300000000000000000000000000000000000E3
:10DD400000000000000000000000000000000000D3
:10E1000000000000000000020202020202020202FD
:10E1100002020202020202020202020202020202DF
:10E1200002020202020202020202020202020202CF
:10E1300002020202020202020202020202020202BF
:10E1400002020202020202020202020202020202AF
:020000024000BC
:1002000002020202020202000000000000000000E0
:1002100000000000000000000000000000000000DE
:1002200000000000000000000000000000000000CE
:1002300000000000000000000000000000000000BE
:1002400000000000000000000000000000000000AE
:1006000000000000000000010101010101010101E1
:1006100001010101010101010101010101010101CA
:1006200001010101010101010101010101010101BA
:1006300001010101010101010101010101010101AA
:10064000010101010101010101010101010101019A
:1027000001010101010101000000000000000000C2
:1027100000000000000000000000000000000000B9
:1027200000000000000000000000000000000000A9
:102730000000000000000000000000000000000099
:102740000000000000000000000000000000000089
:102B000000000000000000020202020202020202B3
:102B10000202020202020202020202020202020295
:102B20000202020202020202020202020202020285
:102B30000202020202020202020202020202020275
:102B40000202020202020202020202020202020265
:104C00000202020202020200000000000000000096
:104C10000000000000000000000000000000000094
:104C20000000000000000000000000000000000084
:104C30000000000000000000000000000000000074
:104C40000000000000000000000000000000000064
:105000000000000000000001010101010101010197
:105010000101010101010101010101010101010180
:105020000101010101010101010101010101010170
:105030000101010101010101010101010101010160
:105040000101010101010101010101010101010150
:107100000101010101010100000000000000000078
:10711000000000000000000000000000000000006F
:10712000000000000000000000000000000000005F
:10713000000000000000000000000000000000004F
:10714000000000000000000000000000000000003F
:107500000000000000000002020202020202020269
:10751000020202020202020202020202020202024B
:10752000020202020202020202020202020202023B
:10753000020202020202020202020202020202022B
:10754000020202020202020202020202020202021B
:10960000020202020202020000000000000000004C
:10961000000000000000000000000000000000004A
:10962000000000000000000000000000000000003A
:10963000000000000000000000000000000000002A
:10964000000000000000000000000000000000001A
:10965000000000000000000000000000000000000A
:1096600000000000000000000000000000000000FA
:1096700000000000000000000000000000000000EA
:1096800000000000000000000000000000000000DA
:1096900000000000000000000000000000000000CA
:1096A00000000000000000000000000000000000BA
:1096B00000000000000000000000000000000000AA
:1096C000000000000000000000000000000000009A
:1096D000000000000000000000000000000000008A
:1096E000000000000000000000000000000000007A
:1096F000000000000000000000000000000000006A
:1097000000000000000000BD00000000000000019B
:109710000101010101010101010101010101010139
:109720000101010101010101010101010101010129
:109730000101010101010101010101010101010119
:109740000101010101010101010101010101010109
:10B30000010101010101010101010101010101002E
:10B31000000000000000000000000000000000002D
:10B32000000000000000000000000000000000001D
:10B33000000000000000000000000000000000000D
:10B3400000000000000000000000000000000000FD
:10B700000000000000000000000000000000000237
:10B710000202020202020202020202020202020209
:10B7200002020202020202020202020202020202F9
:10B7300002020202020202020202020202020202E9
:10B7400002020202020202020202020202020202D9
:10D3000002020202020202020202020202020200FF
:10D31000000000000000000000000000000000000D
:10D3200000000000000000000000000000000000FD
:10D3300000000000000000000000000000000000ED
:10D3400000000000000000000000000000000000DD
:10D700000000000000000000000000000000000118
:10D7100001010101010101010101010101010101F9
:10D7200001010101010101010101010101010101E9
:10D7300001010101010101010101010101010101D9
:10D7400001010101010101010101010101010101C9
:10F3000001010101010101010101010101010100EE
:10F3100000000000000000000000000000000000ED
:10F3200000000000000000000000000000000000DD
:10F3300000000000000000000000000000000000CD
:10F3400000000000000000000000000000000000BD
:10F7000000000000000000000000000000000002F7
:10F7100002020202020202020202020202020202C9
:10F7200002020202020202020202020202020202B9
:10F7300002020202020202020202020202020202A9
:10F740000202020202020202020202020202020299
:020000025000AC
:1013000002020202020202020202020202020200BF
:1013100000000000000000000000000000000000CD
:1013200000000000000000000000000000000000BD
:1013300000000000000000000000000000000000AD
:10134000000000000000000000000000000000009D
:1017000000000000000000000000000000000001D8
:1017100001010101010101010101010101010101B9
:1017200001010101010101010101010101010101A9
:101730000101010101010101010101010101010199
:101740000101010101010101010101010101010189
:1033000001010101010101010101010101010100AE
:1033100000000000000000000000000000000000AD
:10332000000000000000000000000000000000009D
:10333000000000000000000000000000000000008D
:10334000000000000000000000000000000000007D
:1037000000000000000000000000000000000002B7
:103710000202020202020202020202020202020289
:103720000202020202020202020202020202020279
:103730000202020202020202020202020202020269
:103740000202020202020202020202020202020259
:10530000020202020202020202020202020202007F
:10531000000000000000000000000000000000008D
:10532000000000000000000000000000000000007D
:10533000000000000000000000000000000000006D
:10534000000000000000000000000000000000005D
:10535000000000000000000000000000000000004D
:10536000000000000000000000000000000000003D
:10537000000000000000000000000000000000002D
:10538000000000000000000000000000000000001D
:10539000000000000000000000000000000000000D
:1053A00000000000000000000000000000000000FD
:1053B00000000000000000000000000000000000ED
:1053C00000000000000000000000000000000000DD
:1053D00000000000000000000000000000000000CD
:1053E00000000000000000000000000000000000BD
:1053F00000000000000000000000000000000000AD
:10540000000000000000000000000000000000BDDF
:105410000000000000000001010101010101010183
:10542000010101010101010101010101010101016C
:10543000010101010101010101010101010101015C
:10544000010101010101010101010101010101014C
:10545000010101010101010101010101010101013C
:107010000101010101010100000000000000000069
:107020000000000000000000000000000000000060
:107030000000000000000000000000000000000050
:107040000000000000000000000000000000000040
:107050000000000000000000000000000000000030
:10741000000000000000000202020202020202025A
:10742000020202020202020202020202020202023C
:10743000020202020202020202020202020202022C
:10744000020202020202020202020202020202021C
:10745000020202020202020202020202020202020C
:109010000202020202020200000000000000000042
:109020000000000000000000000000000000000040
:109030000000000000000000000000000000000030
:109040000000000000000000000000000000000020
:109050000000000000000000000000000000000010
:109410000000000000000001010101010101010143
:10942000010101010101010101010101010101012C
:10943000010101010101010101010101010101011C
:10944000010101010101010101010101010101010C
:1094500001010101010101010101010101010101FC
:10B010000101010101010100000000000000000029
:10B020000000000000000000000000000000000020
:10B030000000000000000000000000000000000010
:10B040000000000000000000000000000000000000
:10B0500000000000000000000000000000000000F0
:10B41000000000000000000202020202020202021A
:10B4200002020202020202020202020202020202FC
:10B4300002020202020202020202020202020202EC
:10B4400002020202020202020202020202020202DC
:10B4500002020202020202020202020202020202CC
:10D010000202020202020200000000000000000002
:10D020000000000000000000000000000000000000
:10D0300000000000000000000000000000000000F0
:10D0400000000000000000000000000000000000E0
:10D0500000000000000000000000000000000000D0
:10D410000000000000000001010101010101010103
:10D4200001010101010101010101010101010101EC
:10D4300001010101010101010101010101010101DC
:10D4400001010101010101010101010101010101CC
:10D4500001010101010101010101010101010101BC
:10F0100001010101010101000000000000000000E9
:10F0200000000000000000000000000000000000E0
:10F0300000000000000000000000000000000000D0
:10F0400000000000000000000000000000000000C0
:10F0500000000000000000000000000000000000B0
:10F4100000000000000000020202020202020202DA
:10F4200002020202020202020202020202020202BC
:10F4300002020202020202020202020202020202AC
:10F44000020202020202020202020202020202029C
:10F45000020202020202020202020202020202028C
:0200000260009C
:1010100002020202020202000000000000000000C2
:1010200000000000000000000000000000000000C0
:1010300000000000000000000000000000000000B0
:1010400000000000000000000000000000000000A0
:101050000000000000000000000000000000000090
:101060000000000000000000000000000000000080
:101070000000000000000000000000000000000070
:101080000000000000000000000000000000000060
:101090000000000000000000000000000000000050
:1010A0000000000000000000000000000000000040
:1010B0000000000000000000000000000000000030
:1010C0000000000000000000000000000000000020
:1010D0000000000000000000000000000000000010
:1010E0000000000000000000000000000000000000
:1010F00000000000000000000000000000000000F0
:1011000000000000000000000000000000000000DF
:1011100000000000000000BD000000000000000111
:1011200001010101010101010101010101010101AF
:10113000010101010101010101010101010101019F
:10114000010101010101010101010101010101018F
:10115000010101010101010101010101010101017F
:102D100001010101010101010101010101010100A4
:102D200000000000000000000000000000000000A3
:102D30000000000000000000000000000000000093
:102D40000000000000000000000000000000000083
:102D50000000000000000000000000000000000073
:1031100000000000000000000000000000000002AD
:10312000020202020202020202020202020202027F
:10313000020202020202020202020202020202026F
:10314000020202020202020202020202020202025F
:10315000020202020202020202020202020202024F
:104D10000202020202020202020202020202020075
:104D20000000000000000000000000000000000083
:104D30000000000000000000000000000000000073
:104D40000000000000000000000000000000000063
:104D50000000000000000000000000000000000053
:10511000000000000000000000000000000000018E
:10512000010101010101010101010101010101016F
:10513000010101010101010101010101010101015F
:10514000010101010101010101010101010101014F
:10515000010101010101010101010101010101013F
:106D10000101010101010101010101010101010064
:106D20000000000000000000000000000000000063
:106D30000000000000000000000000000000000053
:106D40000000000000000000000000000000000043
:106D50000000000000000000000000000000000033
:10711000000000000000000000000000000000026D
:10712000020202020202020202020202020202023F
:10713000020202020202020202020202020202022F
:10714000020202020202020202020202020202021F
:10715000020202020202020202020202020202020F
:108D10000202020202020202020202020202020035
:108D20000000000000000000000000000000000043
:108D30000000000000000000000000000000000033
:108D40000000000000000000000000000000000023
:108D50000000000000000000000000000000000013
:10911000000000000000000000000000000000014E
:10912000010101010101010101010101010101012F
:10913000010101010101010101010101010101011F
:10914000010101010101010101010101010101010F
:1091500001010101010101010101010101010101FF
:10AD10000101010101010101010101010101010024
:10AD20000000000000000000000000000000000023
:10AD30000000000000000000000000000000000013
:10AD40000000000000000000000000000000000003
:10AD500000000000000000000000000000000000F3
:10B11000000000000000000000000000000000022D
:10B1200002020202020202020202020202020202FF
:10B1300002020202020202020202020202020202EF
:10B1400002020202020202020202020202020202DF
:10B1500002020202020202020202020202020202CF
:10CD100002020202020202020202020202020200F5
:10CD20000000000000000000000000000000000003
:10CD300000000000000000000000000000000000F3
:10CD400000000000000000000000000000000000E3
:10CD500000000000000000000000000000000000D3
:10CD600000000000000000000000000000000000C3
:10CD700000000000000000000000000000000000B3
:10CD800000000000000000000000000000000000A3
:10CD90000000000000000000000000000000000093
:10CDA0000000000000000000000000000000000083
:10CDB0000000000000000000000000000000000073
:10CDC0000000000000000000000000000000000063
:10CDD0000000000000000000000000000000000053
:10CDE0000000000000000000000000000000000043
:10CDF0000000000000000000000000000000000033
:10CE00000000000000000000000000000000000022
:10CE10000000000000000000000000000000009F73
:10CE200000000000000000010101010101010101F9
:10CE300001010101010101010101010101010101E2
:10CE400001010101010101010101010101010101D2
:10CE500001010101010101010101010101010101C2
:10CE600001010101010101010101010101010101B2
:10E5200001010101010101000000000000000000E4
:10E5300000000000000000000000000000000000DB
:10E5400000000000000000000000000000000000CB
:10E5500000000000000000000000000000000000BB
:10E5600000000000000000000000000000000000AB
:10E9200000000000000000020202020202020202D5
:10E9300002020202020202020202020202020202B7
:10E9400002020202020202020202020202020202A7
:10E950000202020202020202020202020202020297
:10E960000202020202020202020202020202020287
:0200000270008C
:1000200002020202020202000000000000000000C2
:1000300000000000000000000000000000000000C0
:1000400000000000000000000000000000000000B0
:1000500000000000000000000000000000000000A0
:100060000000000000000000000000000000000090
:1004200000000000000000010101010101010101C3
:1004300001010101010101010101010101010101AC
:10044000010101010101010101010101010101019C
:10045000010101010101010101010101010101018C
:10046000010101010101010101010101010101017C
:101B200001010101010101000000000000000000AE
:101B300000000000000000000000000000000000A5
:101B40000000000000000000000000000000000095
:101B50000000000000000000000000000000000085
:101B60000000000000000000000000000000000075
:101F2000000000000000000202020202020202029F
:101F30000202020202020202020202020202020281
:101F40000202020202020202020202020202020271
:101F50000202020202020202020202020202020261
:101F60000202020202020202020202020202020251
:10362000020202020202020000000000000000008C
:10363000000000000000000000000000000000008A
:10364000000000000000000000000000000000007A
:10365000000000000000000000000000000000006A
:10366000000000000000000000000000000000005A
:103A2000000000000000000101010101010101018D
:103A30000101010101010101010101010101010176
:103A40000101010101010101010101010101010166
:103A50000101010101010101010101010101010156
:103A60000101010101010101010101010101010146
:105120000101010101010100000000000000000078
:10513000000000000000000000000000000000006F
:10514000000000000000000000000000000000005F
:10515000000000000000000000000000000000004F
:10516000000000000000000000000000000000003F
:105520000000000000000002020202020202020269
:10553000020202020202020202020202020202024B
:10554000020202020202020202020202020202023B
:10555000020202020202020202020202020202022B
:10556000020202020202020202020202020202021B
:106C20000202020202020200000000000000000056
:106C30000000000000000000000000000000000054
:106C40000000000000000000000000000000000044
:106C50000000000000000000000000000000000034
:106C60000000000000000000000000000000000024
:106C70000000000000000000000000000000000014
:106C80000000000000000000000000000000000004
:106C900000000000000000000000000000000000F4
:106CA00000000000000000000000000000000000E4
:106CB00000000000000000000000000000000000D4
:106CC00000000000000000000000000000000000C4
:106CD00000000000000000000000000000000000B4
:106CE00000000000000000000000000000000000A4
:106CF0000000000000000000000000000000000094
:106D00000000000000000000000000000000000083
:106D10000000000000000000000000000000000073
:106D200000000000000000930000000000000001CF
:106D30000101010101010101010101010101010143
:106D40000101010101010101010101010101010133
:106D50000101010101010101010101010101010123
:106D60000101010101010101010101010101010113
:10822000010101010101010101010101010101003F
:10823000000000000000000000000000000000003E
:10824000000000000000000000000000000000002E
:10825000000000000000000000000000000000001E
:10826000000000000000000000000000000000000E
:108620000000000000000000000000000000000248
:10863000020202020202020202020202020202021A
:10864000020202020202020202020202020202020A
:1086500002020202020202020202020202020202FA
:1086600002020202020202020202020202020202EA
:109B20000202020202020202020202020202020017
:109B30000000000000000000000000000000000025
:109B40000000000000000000000000000000000015
:109B50000000000000000000000000000000000005
:109B600000000000000000000000000000000000F5
:109F20000000000000000000000000000000000130
:109F30000101010101010101010101010101010111
:109F40000101010101010101010101010101010101
:109F500001010101010101010101010101010101F1
:109F600001010101010101010101010101010101E1
:10B42000010101010101010101010101010101000D
:10B43000000000000000000000000000000000000C
:10B4400000000000000000000000000000000000FC
:10B4500000000000000000000000000000000000EC
:10B4600000000000000000000000000000000000DC
:10B820000000000000000000000000000000000216
:10B8300002020202020202020202020202020202E8
:10B8400002020202020202020202020202020202D8
:10B8500002020202020202020202020202020202C8
:10B8600002020202020202020202020202020202B8
:10CD200002020202020202020202020202020200E5
:10CD300000000000000000000000000000000000F3
:10CD400000000000000000000000000000000000E3
:10CD500000000000000000000000000000000000D3
:10CD600000000000000000000000000000000000C3
:10D1200000000000000000000000000000000001FE
:10D1300001010101010101010101010101010101DF
:10D1400001010101010101010101010101010101CF
:10D1500001010101010101010101010101010101BF
:10D1600001010101010101010101010101010101AF
:10E6200001010101010101010101010101010100DB
:10E6300000000000000000000000000000000000DA
:10E6400000000000000000000000000000000000CA
:10E6500000000000000000000000000000000000BA
:10E6600000000000000000000000000000000000AA
:10EA200000000000000000000000000000000002E4
:10EA300002020202020202020202020202020202B6
:10EA400002020202020202020202020202020202A6
:10EA50000202020202020202020202020202020296
:10EA60000202020202020202020202020202020286
:10FF200002020202020202020202020202020200B3
:10FF300000000000000000000000000000000000C1
:10FF400000000000000000000000000000000000B1
:10FF500000000000000000000000000000000000A1
:10FF60000000000000000000000000000000000091
:10FF70000000000000000000000000000000000081
:10FF80000000000000000000000000000000000071
:10FF90000000000000000000000000000000000061
:10FFA0000000000000000000000000000000000051
:10FFB0000000000000000000000000000000000041
:10FFC0000000000000000000000000000000000031
:10FFD0000000000000000000000000000000000021
:10FFE0000000000000000000000000000000000011
:10FFF0000000000000000000000000000000000001
:0200000280007C
:1000000000000000000000000000000000000000F0
:1000100000000000000000000000000000000000E0
:100020000000000000000000000000000000008749
:1000300000000000000000010101010101010101B7
:1000400001010101010101010101010101010101A0
:100050000101010101010101010101010101010190
:100060000101010101010101010101010101010180
:100070000101010101010101010101010101010170
:1013300001010101010101000000000000000000A6
:10134000000000000000000000000000000000009D
:10135000000000000000000000000000000000008D
:10136000000000000000000000000000000000007D
:10137000000000000000000000000000000000006D
:101730000000000000000002020202020202020297
:101740000202020202020202020202020202020279
:101750000202020202020202020202020202020269
:101760000202020202020202020202020202020259
:101770000202020202020202020202020202020249
:102A30000202020202020200000000000000000088
:102A40000000000000000000000000000000000086
:102A50000000000000000000000000000000000076
:102A60000000000000000000000000000000000066
:102A70000000000000000000000000000000000056
:102E30000000000000000001010101010101010189
:102E40000101010101010101010101010101010172
:102E50000101010101010101010101010101010162
:102E60000101010101010101010101010101010152
:102E70000101010101010101010101010101010142
:104130000101010101010100000000000000000078
:10414000000000000000000000000000000000006F
:10415000000000000000000000000000000000005F
:10416000000000000000000000000000000000004F
:10417000000000000000000000000000000000003F
:104530000000000000000002020202020202020269
:10454000020202020202020202020202020202024B
:10455000020202020202020202020202020202023B
:10456000020202020202020202020202020202022B
:10457000020202020202020202020202020202021B
:10583000020202020202020000000000000000005A
:105840000000000000000000000000000000000058
:105850000000000000000000000000000000000048
:105860000000000000000000000000000000000038
:105870000000000000000000000000000000000028
:105C3000000000000000000101010101010101015B
:105C40000101010101010101010101010101010144
:105C50000101010101010101010101010101010134
:105C60000101010101010101010101010101010124
:105C70000101010101010101010101010101010114
:106F3000010101010101010000000000000000004A
:106F40000000000000000000000000000000000041
:106F50000000000000000000000000000000000031
:106F60000000000000000000000000000000000021
:106F70000000000000000000000000000000000011
:10733000000000000000000202020202020202023B
:10734000020202020202020202020202020202021D
:10735000020202020202020202020202020202020D
:1073600002020202020202020202020202020202FD
:1073700002020202020202020202020202020202ED
:10863000020202020202020000000000000000002C
:10864000000000000000000000000000000000002A
:10865000000000000000000000000000000000001A
:10866000000000000000000000000000000000000A
:1086700000000000000000000000000000000000FA
:1086800000000000000000000000000000000000EA
:1086900000000000000000000000000000000000DA
:1086A00000000000000000000000000000000000CA
:1086B00000000000000000000000000000000000BA
:1086C00000000000000000000000000000000000AA
:1086D000000000000000000000000000000000009A
:1086E000000000000000000000000000000000008A
:1086F000000000000000000000000000000000007A
:108700000000000000000000000000000000000069
:108710000000000000000000000000000000000059
:108720000000000000000000000000000000000049
:1087300000000000000000870000000000000001B1
:108740000101010101010101010101010101010119
:108750000101010101010101010101010101010109
:1087600001010101010101010101010101010101F9
:1087700001010101010101010101010101010101E9
:109A30000101010101010101010101010101010017
:109A40000000000000000000000000000000000016
:109A50000000000000000000000000000000000006
:109A600000000000000000000000000000000000F6
:109A700000000000000000000000000000000000E6
:109E30000000000000000000000000000000000220
:109E400002020202020202020202020202020202F2
:109E500002020202020202020202020202020202E2
:109E600002020202020202020202020202020202D2
:109E700002020202020202020202020202020202C2
:10B1300002020202020202020202020202020200F1
:10B1400000000000000000000000000000000000FF
:10B1500000000000000000000000000000000000EF
:10B1600000000000000000000000000000000000DF
:10B1700000000000000000000000000000000000CF
:10B53000000000000000000000000000000000010A
:10B5400001010101010101010101010101010101EB
:10B5500001010101010101010101010101010101DB
:10B5600001010101010101010101010101010101CB
:10B5700001010101010101010101010101010101BB
:10C8300001010101010101010101010101010100E9
:10C8400000000000000000000000000000000000E8
:10C8500000000000000000000000000000000000D8
:10C8600000000000000000000000000000000000C8
:10C8700000000000000000000000000000000000B8
:10CC300000000000000000000000000000000002F2
:10CC400002020202020202020202020202020202C4
:10CC500002020202020202020202020202020202B4
:10CC600002020202020202020202020202020202A4
:10CC70000202020202020202020202020202020294
:10DF300002020202020202020202020202020200C3
:10DF400000000000000000000000000000000000D1
:10DF500000000000000000000000000000000000C1
:10DF600000000000000000000000000000000000B1
:10DF700000000000000000000000000000000000A1
:10E3300000000000000000000000000000000001DC
:10E3400001010101010101010101010101010101BD
:10E3500001010101010101010101010101010101AD
:10E36000010101010101010101010101010101019D
:10E37000010101010101010101010101010101018D
:10F6300001010101010101010101010101010100BB
:10F6400000000000000000000000000000000000BA
:10F6500000000000000000000000000000000000AA
:10F66000000000000000000000000000000000009A
:10F67000000000000000000000000000000000008A
:10FA300000000000000000000000000000000002C4
:10FA40000202020202020202020202020202020296
:10FA50000202020202020202020202020202020286
:10FA60000202020202020202020202020202020276
:10FA70000202020202020202020202020202020266
:0200000290006C
:100D30000202020202020202020202020202020095
:100D400000000000000000000000000000000000A3
:100D50000000000000000000000000000000000093
:100D60000000000000000000000000000000000083
:100D70000000000000000000000000000000000073
:100D80000000000000000000000000000000000063
:100D90000000000000000000000000000000000053
:100DA0000000000000000000000000000000000043
:100DB0000000000000000000000000000000000033
:100DC0000000000000000000000000000000000023
:100DD0000000000000000000000000000000000013
:100DE0000000000000000000000000000000000003
:100DF00000000000000000000000000000000000F3
:100E000000000000000000000000000000000000E2
:100E100000000000000000000000000000000000D2
:100E200000000000000000000000000000000000C2
:100E3000000000000000000000000000000000872B
:100E40000000000000000001010101010101010199
:100E50000101010101010101010101010101010182
:100E60000101010101010101010101010101010172
:100E70000101010101010101010101010101010162
:100E80000101010101010101010101010101010152
:102140000101010101010100000000000000000088
:10215000000000000000000000000000000000007F
:10216000000000000000000000000000000000006F
:10217000000000000000000000000000000000005F
:10218000000000000000000000000000000000004F
:102540000000000000000002020202020202020279
:10255000020202020202020202020202020202025B
:10256000020202020202020202020202020202024B
:10257000020202020202020202020202020202023B
:10258000020202020202020202020202020202022B
:10384000020202020202020000000000000000006A
:103850000000000000000000000000000000000068
:103860000000000000000000000000000000000058
:103870000000000000000000000000000000000048
:103880000000000000000000000000000000000038
:103C4000000000000000000101010101010101016B
:103C50000101010101010101010101010101010154
:103C60000101010101010101010101010101010144
:103C70000101010101010101010101010101010134
:103C80000101010101010101010101010101010124
:104F4000010101010101010000000000000000005A
:104F50000000000000000000000000000000000051
:104F60000000000000000000000000000000000041
:104F70000000000000000000000000000000000031
:104F80000000000000000000000000000000000021
:10534000000000000000000202020202020202024B
:10535000020202020202020202020202020202022D
:10536000020202020202020202020202020202021D
:10537000020202020202020202020202020202020D
:1053800002020202020202020202020202020202FD
:10664000020202020202020000000000000000003C
:10665000000000000000000000000000000000003A
:10666000000000000000000000000000000000002A
:10667000000000000000000000000000000000001A
:10668000000000000000000000000000000000000A
:106A4000000000000000000101010101010101013D
:106A50000101010101010101010101010101010126
:106A60000101010101010101010101010101010116
:106A70000101010101010101010101010101010106
:106A800001010101010101010101010101010101F6
:107D4000010101010101010000000000000000002C
:107D50000000000000000000000000000000000023
:107D60000000000000000000000000000000000013
:107D70000000000000000000000000000000000003
:107D800000000000000000000000000000000000F3
:10814000000000000000000202020202020202021D
:1081500002020202020202020202020202020202FF
:1081600002020202020202020202020202020202EF
:1081700002020202020202020202020202020202DF
:1081800002020202020202020202020202020202CF
:10944000020202020202020000000000000000000E
:10945000000000000000000000000000000000000C
:1094600000000000000000000000000000000000FC
:1094700000000000000000000000000000000000EC
:1094800000000000000000000000000000000000DC
:1094900000000000000000000000000000000000CC
:1094A00000000000000000000000000000000000BC
:1094B00000000000000000000000000000000000AC
:1094C000000000000000000000000000000000009C
:1094D000000000000000000000000000000000008C
:1094E000000000000000000000000000000000007C
:1094F000000000000000000000000000000000006C
:10950000000000000000000000000000000000005B
:10951000000000000000000000000000000000004B
:10952000000000000000000000000000000000003B
:10953000000000000000000000000000000000002B
:109540000000000000000078950900000000008085
:10955000D6090000000000880E0A000000000090FC
:10956000410A000000000098740A0000000000A0FA
:109570009B0A0000000000A8BD0A0000000000B027
:10958000DA0A0000000000B8F70A0000000000C07E
:10959000140B0000000000C82C0B0000000000D0DD
:1095A000420B0000000000D8560B0000000000E055
:1095B0006A0B0000000000410000000000000000F5
:1095C000000000000000000000000000000001009A
:1095D000000000000000000000000000000000008B
:1095E000000000000000000000000000000000007B
:1095F000000000000000000000000000000000006B
:10960000000000000000000000000000000000005A
:10961000000000000000000000000000000000004A
:10962000000000000000000000000000000000003A
:10963000000000000000000000000000000000002A
:10964000000000000000000000000000000000001A
:10965000000000000000000000000000000000000A
:1096600000000000000000000000000000000000FA
:1096700000000000000000000000000000000000EA
:1096800000000000000000000000000000000000DA
:1096900000000000000000000000000000000000CA
:1096A00000000000000000000000000000000002B8
:1096B00001000000000001000000000000000000A8
:1096C0000000000000000000000000000001010098
:1096D000000000000000000000000000000000008A
:1096E000000000000000000000000000000000007A
:1096F000000000000000000000000000000000006A
:109700000000000000000000000000000000000059
:109710000000000000000000000000000000000049
:109720000000000000000000000000000000000039
:109730000000000000000000000000000000000029
:109740000000000000000000000000000000000019
:109750000000000000000000000000000000000009
:1097600000000000000000000000000000000000F9
:1097700000000000000000000000000000000000E9
:1097800000000000000000000000000000000000D9
:1097900000000000000000000000000000000000C9
:1097A00000000000000000000000000000000002B7
:1097B000010101010101010101010101000000009D
:1097C0000000000000000000000000000001010097
:1097D0000000000000000000000000000000000089
:1097E0000000000000000000000000000000000079
:1097F0000000000000000000000000000000000069
:109800000000000000000000000000000000000058
:109810000000000000000000000000000000000048
:109820000000000000000000000000000000000038
:109830000000000000000000000000000000000028
:109840000000000000000000000000000000000018
:109850000000000000000000000000000000000008
:1098600000000000000000000000000000000000F8
:1098700000000000000000000000000000000000E8
:1098800000000000000000000000000000000000D8
:1098900000000000000000000000000000000000C8
:1098A00000000000000000000000000000000002B6
:1098B000010101010101010101010101000000009C
:1098C0000000000000000000000000000001010096
:1098D0000000000000000000000000000000000088
:1098E0000000000000000000000000000000000078
:1098F0000000000000000000000000000000000068
:109900000000000000000000000000000000000057
:109910000000000000000000000000000000000047
:109920000000000000000000000000000000000037
:109930000000000000000000000000000000000027
:109940000000000000000000000000000000000017
:109950000000000000000000000000000000000007
:1099600000000000000000000000000000000000F7
:1099700000000000000000000000000000000000E7
:1099800000000000000000000000000000000000D7
:1099900000000000000000000000000000000000C7
:1099A00000000000000000000000000000000002B5
:1099B000010101010101010101010101000100009A
:1099C0000000000000000000000000000001010095
:1099D0000000000000000000000000000000000087
:1099E0000000000000000000000000000000000077
:1099F0000000000000000000000000000000000067
:109A00000000000000000000000000000000000056
:109A10000000000000000000000000000000000046
:109A20000000000000000000000000000000000036
:109A30000000000000000000000000000000000026
:109A40000000000000000000000000000000000016
:109A50000000000000000000000000000000000006
:109A600000000000000000000000000000000000F6
:109A700000000000000000000000000000000000E6
:109A800000000000000000000000000000000000D6
:109A900000000000000000000000000000000000C6
:109AA00000000000000000000000000000000002B4
:109AB0000101010101010101010101010001000099
:109AC0000000000000000000000000000001010094
:109AD0000000000000000000000000000000000086
:109AE0000000000000000000000000000000000076
:109AF0000000000000000000000000000000000066
:109B00000000000000000000000000000000000055
:109B10000000000000000000000000000000000045
:109B20000000000000000000000000000000000035
:109B30000000000000000000000000000000000025
:109B40000000000000000000000000000000000015
:109B50000000000000000000000000000000000005
:109B600000000000000000000000000000000000F5
:109B700000000000000000000000000000000000E5
:109B800000000000000000000000000000000000D5
:109B900000000000000000000000000000000000C5
:109BA00000000000000000000000000000000002B3
:109BB0000101010101010101010101010001000098
:109BC0000000000000000000000000000001010093
:109BD0000000000000000000000000000000000085
:109BE0000000000000000000000000000000000075
:109BF0000000000000000000000000000000000065
:109C00000000000000000000000000000000000054
:109C10000000000000000000000000000000000044
:109C20000000000000000000000000000000000034
:109C30000000000000000000000000000000000024
:109C40000000000000000000000000000000000014
:109C50000000000000000000000000000000000004
:109C600000000000000000000000000000000000F4
:109C700000000000000000000000000000000000E4
:109C800000000000000000000000000000000000D4
:109C900000000000000000000000000000000000C4
:109CA00000000000000000000000000000000002B2
:109CB0000101010101010101010101010001000097
:109CC0000000000000000000000000000001010092
:109CD0000000000000000000000000000000000084
:109CE0000000000000000000000000000000000074
:109CF0000000000000000000000000000000000064
:109D00000000000000000000000000000000000053
:109D10000000000000000000000000000000000043
:109D20000000000000000000000000000000000033
:109D30000000000000000000000000000000000023
:109D40000000000000000000000000000000000013
:109D50000000000000000000000000000000000003
:109D600000000000000000000000000000000000F3
:109D700000000000000000000000000000000000E3
:109D800000000000000000000000000000000000D3
:109D900000000000000000000000000000000000C3
:109DA00000000000000000000000000000000002B1
:109DB0000101010101010101010101010001000096
:109DC0000000000000000000000000000001010091
:109DD0000000000000000000000000000000000083
:109DE0000000000000000000000000000000000073
:109DF0000000000000000000000000000000000063
:109E00000000000000000000000000000000000052
:109E10000000000000000000000000000000000042
:109E20000000000000000000000000000000000032
:109E30000000000000000000000000000000000022
:109E40000000000000000000000000000000000012
:109E50000000000000000000000000000000000002
:109E600000000000000000000000000000000000F2
:109E700000000000000000000000000000000000E2
:109E800000000000000000000000000000000000D2
:109E900000000000000000000000000000000000C2
:109EA00000000000000000000000000000000002B0
:109EB0000201010101010101010101010001000094
:109EC000000000000000000000000000010101008F
:109ED0000000000000000000000000000000000082
:109EE0000000000000000000000000000000000072
:109EF0000000000000000000000000000000000062
:109F00000000000000000000000000000000000051
:109F10000000000000000000000000000000000041
:109F20000000000000000000000000000000000031
:109F30000000000000000000000000000000000021
:109F40000000000000000000000000000000000011
:109F50000000000000000000000000000000000001
:109F600000000000000000000000000000000000F1
:109F700000000000000000000000000000000000E1
:109F800000000000000000000000000000000000D1
:109F900000000000000000000000000000000000C1
:109FA00000000000000000000000000000000002AF
:109FB0000201010101010101010101010101000092
:109FC000000000000000000000000000010101008E
:109FD0000000000000000000000000000000000081
:109FE0000000000000000000000000000000000071
:109FF0000000000000000000000000000000000061
:10A000000000000000000000000000000000000050
:10A010000000000000000000000000000000000040
:10A020000000000000000000000000000000000030
:10A030000000000000000000000000000000000020
:10A040000000000000000000000000000000000010
:10A050000000000000000000000000000000000000
:10A0600000000000000000000000000000000000F0
:10A0700000000000000000000000000000000000E0
:10A0800000000000000000000000000000000000D0
:10A0900000000000000000000000000000000000C0
:10A0A00000000000000000000000000000000002AE
:10A0B000020202010101010101010101010100008F
:10A0C000000000000000000000000000010101008D
:10A0D0000000000000000000000000000000000080
:10A0E0000000000000000000000000000000000070
:10A0F0000000000000000000000000000000000060
:10A10000000000000000000000000000000000004F
:10A11000000000000000000000000000000000003F
:10A12000000000000000000000000000000000002F
:10A13000000000000000000000000000000000001F
:10A14000000000000000000000000000000000000F
:10A1500000000000000000000000000000000000FF
:10A1600000000000000000000000000000000000EF
:10A1700000000000000000000000000000000000DF
:10A1800000000000000000000000000000000000CF
:10A1900000000000000000000000000000000000BF
:10A1A00000000000000000000000000000000002AD
:10A1B000020202020101010101010101010100008D
:10A1C000000000000000000000000000010101008C
:10A1D000000000000000000000000000000000007F
:10A1E000000000000000000000000000000000006F
:10A1F000000000000000000000000000000000005F
:10A20000000000000000000000000000000000004E
:10A21000000000000000000000000000000000003E
:10A22000000000000000000000000000000000002E
:10A23000000000000000000000000000000000001E
:10A24000000000000000000000000000000000000E
:10A2500000000000000000000000000000000000FE
:10A2600000000000000000000000000000000000EE
:10A2700000000000000000000000000000000000DE
:10A2800000000000000000000000000000000000CE
:10A2900000000000000000000000000000000000BE
:10A2A00000000000000000000000000000000002AC
:10A2B000020202020101010101010101010100008C
:10A2C000000000000000000000000000010101008B
:10A2D000000000000000000000000000000000007E
:10A2E000000000000000000000000000000000006E
:10A2F000000000000000000000000000000000005E
:10A30000000000000000000000000000000000004D
:10A31000000000000000000000000000000000003D
:10A32000000000000000000000000000000000002D
:10A33000000000000000000000000000000000001D
:10A34000000000000000000000000000000000000D
:10A3500000000000000000000000000000000000FD
:10A3600000000000000000000000000000000000ED
:10A3700000000000000000000000000000000000DD
:10A3800000000000000000000000000000000000CD
:10A3900000000000000000000000000000000000BD
:10A3A00000000000000000000000000000000002AB
:10A3B000020202020201010101010101010100008A
:10A3C000000000000000000000000000010101008A
:10A3D000000000000000000000000000000000007D
:10A3E000000000000000000000000000000000006D
:10A3F000000000000000000000000000000000005D
:10A40000000000000000000000000000000000004C
:10A41000000000000000000000000000000000003C
:10A42000000000000000000000000000000000002C
:10A43000000000000000000000000000000000001C
:10A44000000000000000000000000000000000000C
:10A4500000000000000000000000000000000000FC
:10A4600000000000000000000000000000000000EC
:10A4700000000000000000000000000000000000DC
:10A4800000000000000000000000000000000000CC
:10A4900000000000000000000000000000000000BC
:10A4A00000000000000000000000000000000002AA
:10A4B0000202020202020101010101010101000088
:10A4C0000000000000000000000000010101010088
:10A4D000000000000000000000000000000000007C
:10A4E000000000000000000000000000000000006C
:10A4F000000000000000000000000000000000005C
:10A50000000000000000000000000000000000004B
:10A51000000000000000000000000000000000003B
:10A52000000000000000000000000000000000002B
:10A53000000000000000000000000000000000001B
:10A54000000000000000000000000000000000000B
:10A5500000000000000000000000000000000000FB
:10A5600000000000000000000000000000000000EB
:10A5700000000000000000000000000000000000DB
:10A5800000000000000000000000000000000000CB
:10A5900000000000000000000000000000000000BB
:10A5A00000000000000000000000000000000002A9
:10A5B0000202020202020201010101010101000086
:10A5C0000000000000000000000000010101010087
:10A5D000000000000000000000000000000000007B
:10A5E000000000000000000000000000000000006B
:10A5F000000000000000000000000000000000005B
:10A60000000000000000000000000000000000004A
:10A61000000000000000000000000000000000003A
:10A62000000000000000000000000000000000002A
:10A63000000000000000000000000000000000001A
:10A64000000000000000000000000000000000000A
:10A6500000000000000000000000000000000000FA
:10A6600000000000000000000000000000000000EA
:10A6700000000000000000000000000000000000DA
:10A6800000000000000000000000000000000000CA
:10A6900000000000000000000000000000000000BA
:10A6A00000000000000000000000000000000002A8
:10A6B0000202020202020202010101010101000084
:10A6C0000000000000000000000000010101010086
:10A6D000000000000000000000000000000000007A
:10A6E000000000000000000000000000000000006A
:10A6F000000000000000000000000000000000005A
:10A700000000000000000000000000000000000049
:10A710000000000000000000000000000000000039
:10A720000000000000000000000000000000000029
:10A730000000000000000000000000000000000019
:10A740000000000000000000000000000000000009
:10A7500000000000000000000000000000000000F9
:10A7600000000000000000000000000000000000E9
:10A7700000000000000000000000000000000000D9
:10A7800000000000000000000000000000000000C9
:10A7900000000000000000000000000000000000B9
:10A7A00000000000000000000000000000000002A7
:10A7B0000202020202020202010101010101000083
:10A7C0000000000000000000000000010101010085
:10A7D0000000000000000000000000000000000079
:10A7E0000000000000000000000000000000000069
:10A7F0000000000000000000000000000000000059
:10A800000000000000000000000000000000000048
:10A810000000000000000000000000000000000038
:10A820000000000000000000000000000000000028
:10A830000000000000000000000000000000000018
:10A840000000000000000000000000000000000008
:10A8500000000000000000000000000000000000F8
:10A8600000000000000000000000000000000000E8
:10A8700000000000000000000000000000000000D8
:10A8800000000000000000000000000000000000C8
:10A8900000000000000000000000000000000000B8
:10A8A00000000000000000000000000000000002A6
:10A8B0000202020202020202010101010101000082
:10A8C0000000000000000000000000010101010084
:10A8D0000000000000000000000000000000000078
:10A8E0000000000000000000000000000000000068
:10A8F0000000000000000000000000000000000058
:10A900000000000000000000000000000000000047
:10A910000000000000000000000000000000000037
:10A920000000000000000000000000000000000027
:10A930000000000000000000000000000000000017
:10A940000000000000000000000000000000000007
:10A9500000000000000000000000000000000000F7
:10A9600000000000000000000000000000000000E7
:10A9700000000000000000000000000000000000D7
:10A9800000000000000000000000000000000000C7
:10A9900000000000000000000000000000000000B7
:10A9A00000000000000000000000000000000002A5
:10A9B0000202020202020202020101010101000080
:10A9C0000000000000000000000000010101010083
:10A9D0000000000000000000000000000000000077
:10A9E0000000000000000000000000000000000067
:10A9F0000000000000000000000000000000000057
:10AA00000000000000000000000000000000000046
:10AA10000000000000000000000000000000000036
:10AA20000000000000000000000000000000000026
:10AA30000000000000000000000000000000000016
:10AA40000000000000000000000000000000000006
:10AA500000000000000000000000000000000000F6
:10AA600000000000000000000000000000000000E6
:10AA700000000000000000000000000000000000D6
:10AA800000000000000000000000000000000000C6
:10AA900000000000000000000000000000000000B6
:10AAA00000000000000000000000000000000002A4
:10AAB000020202020202020202010101010100007F
:10AAC0000000000000000000000000010101010082
:10AAD0000000000000000000000000000000000076
:10AAE0000000000000000000000000000000000066
:10AAF0000000000000000000000000000000000056
:10AB00000000000000000000000000000000000045
:10AB10000000000000000000000000000000000035
:10AB20000000000000000000000000000000000025
:10AB30000000000000000000000000000000000015
:10AB40000000000000000000000000000000000005
:10AB500000000000000000000000000000000000F5
:10AB600000000000000000000000000000000000E5
:10AB700000000000000000000000000000000000D5
:10AB800000000000000000000000000000000000C5
:10AB900000000000000000000000000000000000B5
:10ABA00000000000000000000000000000000002A3
:10ABB000020202020202020202020201010100007C
:10ABC0000000000000000000000000010101010081
:10ABD0000000000000000000000000000000000075
:10ABE0000000000000000000000000000000000065
:10ABF0000000000000000000000000000000000055
:10AC00000000000000000000000000000000000044
:10AC10000000000000000000000000000000000034
:10AC20000000000000000000000000000000000024
:10AC30000000000000000000000000000000000014
:10AC40000000000000000000000000000000000004
:10AC500000000000000000000000000000000000F4
:10AC600000000000000000000000000000000000E4
:10AC700000000000000000000000000000000000D4
:10AC800000000000000000000000000000000000C4
:10AC900000000000000000000000000000000000B4
:10ACA00000000000000000000000000000000002A2
:10ACB000020202020202020202020201010100007B
:10ACC000000000000000000000010101010101007E
:10ACD0000000000000000000000000000000000074
:10ACE0000000000000000000000000000000000064
:10ACF0000000000000000000000000000000000054
:10AD00000000000000000000000000000000000043
:10AD10000000000000000000000000000000000033
:10AD20000000000000000000000000000000000023
:10AD30000000000000000000000000000000000013
:10AD40000000000000000000000000000000000003
:10AD500000000000000000000000000000000000F3
:10AD600000000000000000000000000000000000E3
:10AD700000000000000000000000000000000000D3
:10AD800000000000000000000000000000000000C3
:10AD900000000000000000000000000000000000B3
:10ADA00000000000000000000000000000000002A1
:10ADB000020202020202020202020201010100007A
:10ADC000000000000000000000010101010101007D
:10ADD0000000000000000000000000000000000073
:10ADE0000000000000000000000000000000000063
:10ADF0000000000000000000000000000000000053
:10AE00000000000000000000000000000000000042
:10AE10000000000000000000000000000000000032
:10AE20000000000000000000000000000000000022
:10AE30000000000000000000000000000000000012
:10AE40000000000000000000000000000000000002
:10AE500000000000000000000000000000000000F2
:10AE600000000000000000000000000000000000E2
:10AE700000000000000000000000000000000000D2
:10AE800000000000000000000000000000000000C2
:10AE900000000000000000000000000000000000B2
:10AEA00000000000000000000000000000000002A0
:10AEB0000202020202020202020202010101000079
:10AEC000000000000000000000010101010101007C
:10AED0000000000000000000000000000000000072
:10AEE0000000000000000000000000000000000062
:10AEF0000000000000000000000000000000000052
:10AF00000000000000000000000000000000000041
:10AF10000000000000000000000000000000000031
:10AF20000000000000000000000000000000000021
:10AF30000000000000000000000000000000000011
:10AF40000000000000000000000000000000000001
:10AF500000000000000000000000000000000000F1
:10AF600000000000000000000000000000000000E1
:10AF700000000000000000000000000000000000D1
:10AF800000000000000000000000000000000000C1
:10AF900000000000000000000000000000000000B1
:10AFA000000000000000000000000000000000029F
:10AFB0000202020202020202020202020101000077
:10AFC000000000000000000000010101010101007B
:10AFD0000000000000000000000000000000000071
:10AFE0000000000000000000000000000000000061
:10AFF0000000000000000000000000000000000051
:10B000000000000000000000000000000000000040
:10B010000000000000000000000000000000000030
:10B020000000000000000000000000000000000020
:10B030000000000000000000000000000000000010
:10B040000000000000000000000000000000000000
:10B0500000000000000000000000000000000000F0
:10B0600000000000000000000000000000000000E0
:10B0700000000000000000000000000000000000D0
:10B0800000000000000000000000000000000000C0
:10B0900000000000000000000000000000000000B0
:10B0A000000000000000000000000000000000029E
:10B0B0000202020202020202020202020101000076
:10B0C0000000000000000000010101010101010079
:10B0D0000000000000000000000000000000000070
:10B0E0000000000000000000000000000000000060
:10B0F0000000000000000000000000000000000050
:10B10000000000000000000000000000000000003F
:10B11000000000000000000000000000000000002F
:10B12000000000000000000000000000000000001F
:10B13000000000000000000000000000000000000F
:10B1400000000000000000000000000000000000FF
:10B1500000000000000000000000000000000000EF
:10B1600000000000000000000000000000000000DF
:10B1700000000000000000000000000000000000CF
:10B1800000000000000000000000000000000000BF
:10B1900000000000000000000000000000000000AF
:10B1A000000000000000000000000000000000029D
:10B1B0000202020202020202020202020101000075
:10B1C0000000000000000000010101010101010078
:10B1D000000000000000000000000000000000006F
:10B1E000000000000000000000000000000000005F
:10B1F000000000000000000000000000000000004F
:10B20000000000000000000000000000000000003E
:10B21000000000000000000000000000000000002E
:10B22000000000000000000000000000000000001E
:10B23000000000000000000000000000000000000E
:10B2400000000000000000000000000000000000FE
:10B2500000000000000000000000000000000000EE
:10B2600000000000000000000000000000000000DE
:10B2700000000000000000000000000000000000CE
:10B2800000000000000000000000000000000000BE
:10B2900000000000000000000000000000000000AE
:10B2A000000000000000000000000000000000029C
:10B2B0000202020202020202020202020101000074
:10B2C0000000000000000000010101010101010077
:10B2D000000000000000000000000000000000006E
:10B2E000000000000000000000000000000000005E
:10B2F000000000000000000000000000000000004E
:10B30000000000000000000000000000000000003D
:10B31000000000000000000000000000000000002D
:10B32000000000000000000000000000000000001D
:10B33000000000000000000000000000000000000D
:10B3400000000000000000000000000000000000FD
:10B3500000000000000000000000000000000000ED
:10B3600000000000000000000000000000000000DD
:10B3700000000000000000000000000000000000CD
:10B3800000000000000000000000000000000000BD
:10B3900000000000000000000000000000000000AD
:10B3A000000000000000000000000000000000029B
:10B3B0000202020202020202020202020101000073
:10B3C0000000000000000000010101010101010076
:10B3D000000000000000000000000000000000006D
:10B3E000000000000000000000000000000000005D
:10B3F000000000000000000000000000000000004D
:10B40000000000000000000000000000000000003C
:10B41000000000000000000000000000000000002C
:10B42000000000000000000000000000000000001C
:10B43000000000000000000000000000000000000C
:10B4400000000000000000000000000000000000FC
:10B4500000000000000000000000000000000000EC
:10B4600000000000000000000000000000000000DC
:10B4700000000000000000000000000000000000CC
:10B4800000000000000000000000000000000000BC
:10B4900000000000000000000000000000000000AC
:10B4A000000000000000000000000000000000029A
:10B4B0000202020202020202020202020101000072
:10B4C0000000000000000000010101010101010075
:10B4D000000000000000000000000000000000006C
:10B4E000000000000000000000000000000000005C
:10B4F000000000000000000000000000000000004C
:10B50000000000000000000000000000000000003B
:10B51000000000000000000000000000000000002B
:10B52000000000000000000000000000000000001B
:10B53000000000000000000000000000000000000B
:10B5400000000000000000000000000000000000FB
:10B5500000000000000000000000000000000000EB
:10B5600000000000000000000000000000000000DB
:10B5700000000000000000000000000000000000CB
:10B5800000000000000000000000000000000000BB
:10B5900000000000000000000000000000000000AB
:10B5A0000000000000000000000000000000000299
:10B5B0000202020202020202020202020101000071
:10B5C0000000000000000000010101010101010074
:10B5D000000000000000000000000000000000006B
:10B5E000000000000000000000000000000000005B
:10B5F000000000000000000000000000000000004B
:10B60000000000000000000000000000000000003A
:10B61000000000000000000000000000000000002A
:10B62000000000000000000000000000000000001A
:10B63000000000000000000000000000000000000A
:10B6400000000000000000000000000000000000FA
:10B6500000000000000000000000000000000000EA
