:100000003DBCC5E3800A0100EC090000050669005B
:10001000035E211D3C4F0185030000004000005C91
:100020004700000100040D00FFFC00000000005428
:10003000000306090C0F1215181B1E21262B302851
:10004000000000000000000825050000000000E896
:10005000A1060000000000C8620A0000000000A81D
:10006000230E00000000009800000000000000A027
:1000700065000000000000A8C0000000000000B003
:100080000F010000000000B85E010000000000C089
:10009000AD010000000000C83E020000000000D0DA
:1000A000BB020000000000D838030000000000E0A0
:1000B0009D030000000000E8F2030000000000F0D3
:1000C00043040000000000F88E040000000000005F
:1000D000DA040000000000650000000000000001DC
:1000E0000101010101010101010101010101010100
:1000F00001010101010101010101010101010101F0
:1001000001010101010101010101010101010101DF
:1001100001010101010101010101010101010101CF
:1030D00001010101010101010101010101010100E1
:1030E00000000000000000000000000000000000E0
:1030F00000000000000000000000000000000000D0
:1031000000000000000000000000000000000000BF
:1031100000000000000000000000000000000000AF
:1034D00000000000000000000000000000000002EA
:1034E00002020202020202020202020202020202BC
:1034F00002020202020202020202020202020202AC
:10350000020202020202020202020202020202029B
:10351000020202020202020202020202020202028B
:1064D000020202020202020202020202020202009E
:1064E00000000000000000000000000000000000AC
:1064F000000000000000000000000000000000009C
:10650000000000000000000000000000000000008B
:10651000000000000000000000000000000000007B
:10652000000000000000000000000000000000006B
:10653000000000000000000000000000000000005B
:10654000000000000000000000000000000000004B
:10655000000000000000000000000000000000003B
:10656000000000000000000000000000000000002B
:10657000000000000000000000000000000000001B
:10658000000000000000000000000000000000000B
:1065900000000000000000000000000000000000FB
:1065A00000000000000000000000000000000000EB
:1065B00000000000000000000000000000000000DB
:1065C00000000000000000000000000000000000CB
:1065D0000000000000000000000000000000005B60
:1065E00000000000000000010101010101010101A2
:1065F000010101010101010101010101010101018B
:10660000010101010101010101010101010101017A
:10661000010101010101010101010101010101016A
:10662000010101010101010101010101010101015A
:108EE000010101010101010000000000000000007B
:108EF0000000000000000000000000000000000072
:108F00000000000000000000000000000000000061
:108F10000000000000000000000000000000000051
:108F20000000000000000000000000000000000041
:1092E0000000000000000001010101010101010175
:1092F000010101010101010101010101010101015E
:10930000010101010101010101010101010101014D
:10931000010101010101010101010101010101013D
:10932000010101010101010101010101010101012D
:10933000010101010101010101010101010101011D
:10934000010101010101010101010101010101010D
:1093500001010101010101010101010101010101FD
:1093600001010101010101010101010101010101ED
:1093700001010101010101010101010101010101DD
:1093800001010101010101010101010101010101CD
:1093900001010101010101010101010101010101BD
:1093A00001010101010101010101010101010101AD
:1093B000010101010101010101010101010101019D
:1093C000010101010101010101010101010101018D
:1093D000010101010101010101010101010101017D
:1093E000010101010101010101010101010101016D
:1093F000010101010101010101010101010101015D
:10940000010101010101010101010101010101014C
:10941000010101010101010101010101010101013C
:10942000010101010101010101010101010101012C
:10943000010101010101010101010101010101011C
:10944000010101010101010101010101010101010C
:1094500001010101010101010101010101010101FC
:1094600001010101010101010101010101010101EC
:1094700001010101010101010101010101010101DC
:1094800001010101010101010101010101010101CC
:1094900001010101010101010101010101010101BC
:1094A00001010101010101010101010101010101AC
:1094B000010101010101010101010101010101019C
:1094C000010101010101010101010101010101018C
:1094D000010101010101010101010101010101017C
:1094E0000101010101010102020202020202020263
:1094F000020202020202020202020202020202024C
:10950000020202020202020202020202020202023B
:10951000020202020202020202020202020202022B
:10952000020202020202020202020202020202021B
:10BFE0000202020202020200000000000000000043
:10BFF0000000000000000000000000000000000041
:10C000000000000000000000000000000000000030
:10C010000000000000000000000000000000000020
:10C020000000000000000000000000000000000010
:10C030000000000000000000000000000000000000
:10C0400000000000000000000000000000000000F0
:10C0500000000000000000000000000000000000E0
:10C0600000000000000000000000000000000000D0
:10C0700000000000000000000000000000000000C0
:10C0800000000000000000000000000000000000B0
:10C0900000000000000000000000000000000000A0
:10C0A0000000000000000000000000000000000090
:10C0B0000000000000000000000000000000000080
:10C0C0000000000000000000000000000000000070
:10C0D0000000000000000000000000000000000060
:10C0E000000000000000004F000000000000000100
:10C0F0000101010101010101010101010101010130
:10C10000010101010101010101010101010101011F
:10C11000010101010101010101010101010101010F
:10C1200001010101010101010101010101010101FF
:10E5E000010101010101010101010101010101001C
:10E5F000000000000000000000000000000000001B
:10E60000000000000000000000000000000000000A
:10E6100000000000000000000000000000000000FA
:10E6200000000000000000000000000000000000EA
:10E9E0000000000000000000000000000000000225
:10E9F00002020202020202020202020202020202F7
:10EA000002020202020202020202020202020202E6
:10EA100002020202020202020202020202020202D6
:10EA200002020202020202020202020202020202C6
:020000021000EC
:100EE00002020202020202020202020202020200E4
:100EF00000000000000000000000000000000000F2
:100F000000000000000000000000000000000000E1
:100F100000000000000000000000000000000000D1
:100F200000000000000000000000000000000000C1
:100F300000000000000000000000000000000000B1
:100F400000000000000000000000000000000000A1
:100F50000000000000000000000000000000000091
:100F60000000000000000000000000000000000081
:100F70000000000000000000000000000000000071
:100F80000000000000000000000000000000000061
:100F90000000000000000000000000000000000051
:100FA0000000000000000000000000000000000041
:100FB0000000000000000000000000000000000031
:100FC0000000000000000000000000000000000021
:100FD0000000000000000000000000000000000011
:100FE0000000000000000000000000000000004FB2
:100FF00000000000000000010101010101010101E8
:1010000001010101010101010101010101010101D0
:1010100001010101010101010101010101010101C0
:1010200001010101010101010101010101010101B0
:1010300001010101010101010101010101010101A0
:1034F00001010101010101000000000000000000C5
:1035000000000000000000000000000000000000BB
:1035100000000000000000000000000000000000AB
:10352000000000000000000000000000000000009B
:10353000000000000000000000000000000000008B
:1038F00000000000000000020202020202020202B6
:103900000202020202020202020202020202020297
:103910000202020202020202020202020202020287
:103920000202020202020202020202020202020277
:103930000202020202020202020202020202020267
:105DF0000202020202020200000000000000000095
:105E00000000000000000000000000000000000092
:105E10000000000000000000000000000000000082
:105E20000000000000000000000000000000000072
:105E30000000000000000000000000000000000062
:105E40000000000000000000000000000000000052
:105E50000000000000000000000000000000000042
:105E60000000000000000000000000000000000032
:105E70000000000000000000000000000000000022
:105E80000000000000000000000000000000000012
:105E90000000000000000000000000000000000002
:105EA00000000000000000000000000000000000F2
:105EB00000000000000000000000000000000000E2
:105EC00000000000000000000000000000000000D2
:105ED00000000000000000000000000000000000C2
:105EE00000000000000000000000000000000000B2
:105EF000000000000000004F000000000000000152
:105F00000101010101010101010101010101010181
:105F10000101010101010101010101010101010171
:105F20000101010101010101010101010101010161
:105F30000101010101010101010101010101010151
:107AF0000101010101010101010101010101010077
:107B00000000000000000000000000000000000075
:107B10000000000000000000000000000000000065
:107B20000000000000000000000000000000000055
:107B30000000000000000000000000000000000045
:107EF0000000000000000000000000000000000181
:107F00000101010101010101010101010101010161
:107F10000101010101010101010101010101010151
:107F20000101010101010101010101010101010141
:107F30000101010101010101010101010101010131
:1084F000010101010101010101010101010101026B
:10850000020202020202020202020202020202024B
:10851000020202020202020202020202020202023B
:10852000020202020202020202020202020202022B
:10853000020202020202020202020202020202021B
:10A6F000020202020202020202020202020202003C
:10A700000000000000000000000000000000000049
:10A710000000000000000000000000000000000039
:10A720000000000000000000000000000000000029
:10A730000000000000000000000000000000000019
:10ADF00000000000000000000000000000000091C2
:10AE00000000000000000001010101010101010139
:10AE10000101010101010101010101010101010122
:10AE20000101010101010101010101010101010112
:10AE30000101010101010101010101010101010102
:10AE400001010101010101010101010101010101F2
:10C600000101010101010100000000000000000023
:10C61000000000000000000000000000000000001A
:10C62000000000000000000000000000000000000A
:10C6300000000000000000000000000000000000FA
:10C6400000000000000000000000000000000000EA
:10CA0000000000000000000101010101010101011D
:10CA10000101010101010101010101010101010106
:10CA200001010101010101010101010101010101F6
:10CA300001010101010101010101010101010101E6
:10CA400001010101010101010101010101010101D6
:10D000000101010101010102020202020202020207
:10D0100002020202020202020202020202020202F0
:10D0200002020202020202020202020202020202E0
:10D0300002020202020202020202020202020202D0
:10D0400002020202020202020202020202020202C0
:10EE000002020202020202000000000000000000F4
:10EE100000000000000000000000000000000000F2
:10EE200000000000000000000000000000000000E2
:10EE300000000000000000000000000000000000D2
:10EE400000000000000000000000000000000000C2
:10F8000000000000000000010101010101010101EF
:10F8100001010101010101010101010101010101D8
:10F8200001010101010101010101010101010101C8
:10F8300001010101010101010101010101010101B8
:10F8400001010101010101010101010101010101A8
:020000022000DC
:1010000001010101010101000000000000000000D9
:1010100000000000000000000000000000000000D0
:1010200000000000000000000000000000000000C0
:1010300000000000000000000000000000000000B0
:1010400000000000000000000000000000000000A0
:1014000000000000000000010101010101010101D3
:1014100001010101010101010101010101010101BC
:1014200001010101010101010101010101010101AC
:10143000010101010101010101010101010101019C
:10144000010101010101010101010101010101018C
:101A000001010101010101020202020202020202BD
:101A100002020202020202020202020202020202A6
:101A20000202020202020202020202020202020296
:101A30000202020202020202020202020202020286
:101A40000202020202020202020202020202020276
:1038000002020202020202000000000000000000AA
:1038100000000000000000000000000000000000A8
:103820000000000000000000000000000000000098
:103830000000000000000000000000000000000088
:103840000000000000000000000000000000000078
:103F0000000000000000007D000000000000000133
:103F10000101010101010101010101010101010191
:103F20000101010101010101010101010101010181
:103F30000101010101010101010101010101010171
:103F40000101010101010101010101010101010161
:10540000010101010101010101010101010101008D
:10541000000000000000000000000000000000008C
:10542000000000000000000000000000000000007C
:10543000000000000000000000000000000000006C
:10544000000000000000000000000000000000005C
:105800000000000000000000000000000000000197
:105810000101010101010101010101010101010178
:105820000101010101010101010101010101010168
:105830000101010101010101010101010101010158
:105840000101010101010101010101010101010148
:105E00000101010101010101010101010101010281
:105E10000202020202020202020202020202020262
:105E20000202020202020202020202020202020252
:105E30000202020202020202020202020202020242
:105E40000202020202020202020202020202020232
:107900000202020202020202020202020202020059
:107910000000000000000000000000000000000067
:107920000000000000000000000000000000000057
:107930000000000000000000000000000000000047
:107940000000000000000000000000000000000037
:107F00000000000000000000000000000000000170
:107F10000101010101010101010101010101010151
:107F20000101010101010101010101010101010141
:107F30000101010101010101010101010101010131
:107F40000101010101010101010101010101010121
:10940000010101010101010101010101010101004D
:10941000000000000000000000000000000000004C
:10942000000000000000000000000000000000003C
:10943000000000000000000000000000000000002C
:10944000000000000000000000000000000000001C
:109800000000000000000000000000000000000157
:109810000101010101010101010101010101010138
:109820000101010101010101010101010101010128
:109830000101010101010101010101010101010118
:109840000101010101010101010101010101010108
:109E00000101010101010101010101010101010241
:109E10000202020202020202020202020202020222
:109E20000202020202020202020202020202020212
:109E30000202020202020202020202020202020202
:109E400002020202020202020202020202020202F2
:10B900000202020202020202020202020202020019
:10B910000000000000000000000000000000000027
:10B920000000000000000000000000000000000017
:10B930000000000000000000000000000000000007
:10B9400000000000000000000000000000000000F7
:10BC00000000000000000000000000000000007DB7
:10BC1000000000000000000101010101010101011B
:10BC20000101010101010101010101010101010104
:10BC300001010101010101010101010101010101F4
:10BC400001010101010101010101010101010101E4
:10BC500001010101010101010101010101010101D4
:10D110000101010101010100000000000000000008
:10D1200000000000000000000000000000000000FF
:10D1300000000000000000000000000000000000EF
:10D1400000000000000000000000000000000000DF
:10D1500000000000000000000000000000000000CF
:10D510000000000000000001010101010101010102
:10D5200001010101010101010101010101010101EB
:10D5300001010101010101010101010101010101DB
:10D5400001010101010101010101010101010101CB
:10D5500001010101010101010101010101010101BB
:10DB100001010101010101020202020202020202EC
:10DB200002020202020202020202020202020202D5
:10DB300002020202020202020202020202020202C5
:10DB400002020202020202020202020202020202B5
:10DB500002020202020202020202020202020202A5
:10F6100002020202020202000000000000000000DC
:10F6200000000000000000000000000000000000DA
:10F6300000000000000000000000000000000000CA
:10F6400000000000000000000000000000000000BA
:10F6500000000000000000000000000000000000AA
:10FC100000000000000000010101010101010101DB
:10FC200001010101010101010101010101010101C4
:10FC300001010101010101010101010101010101B4
:10FC400001010101010101010101010101010101A4
:10FC50000101010101010101010101010101010194
:020000023000CC
:1011100001010101010101000000000000000000C8
:1011200000000000000000000000000000000000BF
:1011300000000000000000000000000000000000AF
:10114000000000000000000000000000000000009F
:10115000000000000000000000000000000000008F
:1015100000000000000000010101010101010101C2
:1015200001010101010101010101010101010101AB
:10153000010101010101010101010101010101019B
:10154000010101010101010101010101010101018B
:10155000010101010101010101010101010101017B
:101B100001010101010101020202020202020202AC
:101B20000202020202020202020202020202020295
:101B30000202020202020202020202020202020285
:101B40000202020202020202020202020202020275
:101B50000202020202020202020202020202020265
:10361000020202020202020000000000000000009C
:10362000000000000000000000000000000000009A
:10363000000000000000000000000000000000008A
:10364000000000000000000000000000000000007A
:10365000000000000000000000000000000000006A
:103910000000000000000065000000000000000141
:103920000101010101010101010101010101010187
:103930000101010101010101010101010101010177
:103940000101010101010101010101010101010167
:103950000101010101010101010101010101010157
:104E10000101010101010101010101010101010083
:104E20000000000000000000000000000000000082
:104E30000000000000000000000000000000000072
:104E40000000000000000000000000000000000062
:104E50000000000000000000000000000000000052
:10521000000000000000000000000000000000028C
:10522000020202020202020202020202020202025E
:10523000020202020202020202020202020202024E
:10524000020202020202020202020202020202023E
:10525000020202020202020202020202020202022E
:10671000020202020202020202020202020202005B
:106720000000000000000000000000000000000069
:106730000000000000000000000000000000000059
:106740000000000000000000000000000000000049
:106750000000000000000000000000000000000039
:106D10000000000000000000000000000000000172
:106D20000101010101010101010101010101010153
:106D30000101010101010101010101010101010143
:106D40000101010101010101010101010101010133
:106D50000101010101010101010101010101010123
:10821000010101010101010101010101010101004F
:10822000000000000000000000000000000000004E
:10823000000000000000000000000000000000003E
:10824000000000000000000000000000000000002E
:10825000000000000000000000000000000000001E
:108610000000000000000000000000000000000258
:10862000020202020202020202020202020202022A
:10863000020202020202020202020202020202021A
:10864000020202020202020202020202020202020A
:1086500002020202020202020202020202020202FA
:109B10000202020202020202020202020202020027
:109B20000000000000000000000000000000000035
:109B30000000000000000000000000000000000025
:109B40000000000000000000000000000000000015
:109B50000000000000000000000000000000000005
:109E100000000000000000000000000000000055ED
:109E20000000000000000001010101010101010129
:109E30000101010101010101010101010101010112
:109E40000101010101010101010101010101010102
:109E500001010101010101010101010101010101F2
:109E600001010101010101010101010101010101E2
:10AF2000010101010101010000000000000000001A
:10AF30000000000000000000000000000000000011
:10AF40000000000000000000000000000000000001
:10AF500000000000000000000000000000000000F1
:10AF600000000000000000000000000000000000E1
:10B32000000000000000000202020202020202020B
:10B3300002020202020202020202020202020202ED
:10B3400002020202020202020202020202020202DD
:10B3500002020202020202020202020202020202CD
:10B3600002020202020202020202020202020202BD
:10C4200002020202020202000000000000000000FE
:10C4300000000000000000000000000000000000FC
:10C4400000000000000000000000000000000000EC
:10C4500000000000000000000000000000000000DC
:10C4600000000000000000000000000000000000CC
:10CA200000000000000000010101010101010101FD
:10CA300001010101010101010101010101010101E6
:10CA400001010101010101010101010101010101D6
:10CA500001010101010101010101010101010101C6
:10CA600001010101010101010101010101010101B6
:10DB200001010101010101000000000000000000EE
:10DB300000000000000000000000000000000000E5
:10DB400000000000000000000000000000000000D5
:10DB500000000000000000000000000000000000C5
:10DB600000000000000000000000000000000000B5
:10DF200000000000000000020202020202020202DF
:10DF300002020202020202020202020202020202C1
:10DF400002020202020202020202020202020202B1
:10DF500002020202020202020202020202020202A1
:10DF60000202020202020202020202020202020291
:10F0200002020202020202000000000000000000D2
:10F0300000000000000000000000000000000000D0
:10F0400000000000000000000000000000000000C0
:10F0500000000000000000000000000000000000B0
:10F0600000000000000000000000000000000000A0
:10F32000000000000000005100000000000000018B
:10F3300001010101010101010101010101010101BD
:10F3400001010101010101010101010101010101AD
:10F35000010101010101010101010101010101019D
:10F36000010101010101010101010101010101018D
:020000024000BC
:1003200001010101010101010101010101010100BE
:1003300000000000000000000000000000000000BD
:1003400000000000000000000000000000000000AD
:10035000000000000000000000000000000000009D
:10036000000000000000000000000000000000008D
:1007200000000000000000000000000000000002C7
:100730000202020202020202020202020202020299
:100740000202020202020202020202020202020289
:100750000202020202020202020202020202020279
:100760000202020202020202020202020202020269
:10172000020202020202020202020202020202009B
:1017300000000000000000000000000000000000A9
:101740000000000000000000000000000000000099
:101750000000000000000000000000000000000089
:101760000000000000000000000000000000000079
:101D200000000000000000000000000000000001B2
:101D30000101010101010101010101010101010193
:101D40000101010101010101010101010101010183
:101D50000101010101010101010101010101010173
:101D60000101010101010101010101010101010163
:102D20000101010101010101010101010101010094
:102D30000000000000000000000000000000000093
:102D40000000000000000000000000000000000083
:102D50000000000000000000000000000000000073
:102D60000000000000000000000000000000000063
:10312000000000000000000000000000000000029D
:10313000020202020202020202020202020202026F
:10314000020202020202020202020202020202025F
:10315000020202020202020202020202020202024F
:10316000020202020202020202020202020202023F
:104120000202020202020202020202020202020071
:10413000000000000000000000000000000000007F
:10414000000000000000000000000000000000006F
:10415000000000000000000000000000000000005F
:10416000000000000000000000000000000000004F
:104420000000000000000000000000000000004B41
:104430000000000000000001010101010101010173
:10444000010101010101010101010101010101015C
:10445000010101010101010101010101010101014C
:10446000010101010101010101010101010101013C
:10447000010101010101010101010101010101012C
:105230000101010101010100000000000000000067
:10524000000000000000000000000000000000005E
:10525000000000000000000000000000000000004E
:10526000000000000000000000000000000000003E
:10527000000000000000000000000000000000002E
:105630000000000000000002020202020202020258
:10564000020202020202020202020202020202023A
:10565000020202020202020202020202020202022A
:10566000020202020202020202020202020202021A
:10567000020202020202020202020202020202020A
:10643000020202020202020000000000000000004E
:10644000000000000000000000000000000000004C
:10645000000000000000000000000000000000003C
:10646000000000000000000000000000000000002C
:10647000000000000000000000000000000000001C
:106B3000000000000000000101010101010101014C
:106B40000101010101010101010101010101010135
:106B50000101010101010101010101010101010125
:106B60000101010101010101010101010101010115
:106B70000101010101010101010101010101010105
:107930000101010101010100000000000000000040
:107940000000000000000000000000000000000037
:107950000000000000000000000000000000000027
:107960000000000000000000000000000000000017
:107970000000000000000000000000000000000007
:107D30000000000000000002020202020202020231
:107D40000202020202020202020202020202020213
:107D50000202020202020202020202020202020203
:107D600002020202020202020202020202020202F3
:107D700002020202020202020202020202020202E3
:108B30000202020202020200000000000000000027
:108B40000000000000000000000000000000000025
:108B50000000000000000000000000000000000015
:108B60000000000000000000000000000000000005
:108B700000000000000000000000000000000000F5
:108F3000000000000000004B0000000000000001E5
:108F40000101010101010101010101010101010111
:108F50000101010101010101010101010101010101
:108F600001010101010101010101010101010101F1
:108F700001010101010101010101010101010101E1
:109D30000101010101010101010101010101010014
:109D40000000000000000000000000000000000013
:109D50000000000000000000000000000000000003
:109D600000000000000000000000000000000000F3
:109D700000000000000000000000000000000000E3
:10A13000000000000000000000000000000000021D
:10A1400002020202020202020202020202020202EF
:10A1500002020202020202020202020202020202DF
:10A1600002020202020202020202020202020202CF
:10A1700002020202020202020202020202020202BF
:10AF300002020202020202020202020202020200F3
:10AF40000000000000000000000000000000000001
:10AF500000000000000000000000000000000000F1
:10AF600000000000000000000000000000000000E1
:10AF700000000000000000000000000000000000D1
:10B630000000000000000000000000000000000109
:10B6400001010101010101010101010101010101EA
:10B6500001010101010101010101010101010101DA
:10B6600001010101010101010101010101010101CA
:10B6700001010101010101010101010101010101BA
:10C4300001010101010101010101010101010100ED
:10C4400000000000000000000000000000000000EC
:10C4500000000000000000000000000000000000DC
:10C4600000000000000000000000000000000000CC
:10C4700000000000000000000000000000000000BC
:10C8300000000000000000000000000000000002F6
:10C8400002020202020202020202020202020202C8
:10C8500002020202020202020202020202020202B8
:10C8600002020202020202020202020202020202A8
:10C870000202020202020202020202020202020298
:10D6300002020202020202020202020202020200CC
:10D6400000000000000000000000000000000000DA
:10D6500000000000000000000000000000000000CA
:10D6600000000000000000000000000000000000BA
:10D6700000000000000000000000000000000000AA
:10DA30000000000000000000000000000000004B9B
:10DA400000000000000000010101010101010101CD
:10DA500001010101010101010101010101010101B6
:10DA600001010101010101010101010101010101A6
:10DA70000101010101010101010101010101010196
:10DA80000101010101010101010101010101010186
:10E8400001010101010101000000000000000000C1
:10E8500000000000000000000000000000000000B8
:10E8600000000000000000000000000000000000A8
:10E870000000000000000000000000000000000098
:10E880000000000000000000000000000000000088
:10EC400000000000000000020202020202020202B2
:10EC50000202020202020202020202020202020294
:10EC60000202020202020202020202020202020284
:10EC70000202020202020202020202020202020274
:10EC80000202020202020202020202020202020264
:10FA400002020202020202000000000000000000A8
:10FA500000000000000000000000000000000000A6
:10FA60000000000000000000000000000000000096
:10FA70000000000000000000000000000000000086
:10FA80000000000000000000000000000000000076
:020000025000AC
:1001400000000000000000010101010101010101A6
:10015000010101010101010101010101010101018F
:10016000010101010101010101010101010101017F
:10017000010101010101010101010101010101016F
:10018000010101010101010101010101010101015F
:100F4000010101010101010000000000000000009A
:100F50000000000000000000000000000000000091
:100F60000000000000000000000000000000000081
:100F70000000000000000000000000000000000071
:100F80000000000000000000000000000000000061
:10134000000000000000000202020202020202028B
:10135000020202020202020202020202020202026D
:10136000020202020202020202020202020202025D
:10137000020202020202020202020202020202024D
:10138000020202020202020202020202020202023D
:102140000202020202020200000000000000000081
:10215000000000000000000000000000000000007F
:10216000000000000000000000000000000000006F
:10217000000000000000000000000000000000005F
:10218000000000000000000000000000000000004F
:102540000000000000000078250500000000008069
:102550005605000000000088800500000000009083
:10256000A605000000000098CC050000000000A0B7
:10257000E9050000000000A802060000000000B00D
:1025800018060000000000B82E060000000000C081
:1025900044060000000000C858060000000000D0FB
:1025A0006B060000000000D87D060000000000E07F
:1025B0008F06000000000031000000000000000055
:1025C000000000000000000000000000000001000A
:1025D00000000000000000000000000000000000FB
:1025E00000000000000000000000000000000000EB
:1025F00000000000000000000000000000000000DB
:1026000000000000000000000000000000000000CA
:1026100000000000000000000000000000000000BA
:1026200000000000000000000000000000000000AA
:10263000000000000000000000000000000000009A
:10264000000000000000000000000000000000008A
:10265000000000000000000000000000000000007A
:10266000000000000000000000000000000000006A
:10267000000000000000000000000000000000005A
:10268000000000000000000000000000000000004A
:10269000000000000000000000000000000000003A
:1026A0000000000000000000000000000000000228
:1026B0000100000001000000000100000000000017
:1026C0000000000000000000000000000000010009
:1026D00000000000000000000000000000000000FA
:1026E00000000000000000000000000000000000EA
:1026F00000000000000000000000000000000000DA
:1027000000000000000000000000000000000000C9
:1027100000000000000000000000000000000000B9
:1027200000000000000000000000000000000000A9
:102730000000000000000000000000000000000099
:102740000000000000000000000000000000000089
:102750000000000000000000000000000000000079
:102760000000000000000000000000000000000069
:102770000000000000000000000000000000000059
:102780000000000000000000000000000000000049
:102790000000000000000000000000000000000039
:1027A0000000000000000000000000000000000227
:1027B000010101010101010101010101010000000C
:1027C0000000000000000000000000000000010008
:1027D00000000000000000000000000000000000F9
:1027E00000000000000000000000000000000000E9
:1027F00000000000000000000000000000000000D9
:1028000000000000000000000000000000000000C8
:1028100000000000000000000000000000000000B8
:1028200000000000000000000000000000000000A8
:102830000000000000000000000000000000000098
:102840000000000000000000000000000000000088
:102850000000000000000000000000000000000078
:102860000000000000000000000000000000000068
:102870000000000000000000000000000000000058
:102880000000000000000000000000000000000048
:102890000000000000000000000000000000000038
:1028A0000000000000000000000000000000000226
:1028B000010101010101010101010101010000000B
:1028C0000000000000000000000000010101010004
:1028D00000000000000000000000000000000000F8
:1028E00000000000000000000000000000000000E8
:1028F00000000000000000000000000000000000D8
:1029000000000000000000000000000000000000C7
:1029100000000000000000000000000000000000B7
:1029200000000000000000000000000000000000A7
:102930000000000000000000000000000000000097
:102940000000000000000000000000000000000087
:102950000000000000000000000000000000000077
:102960000000000000000000000000000000000067
:102970000000000000000000000000000000000057
:102980000000000000000000000000000000000047
:102990000000000000000000000000000000000037
:1029A0000000000000000000000000000000000225
:1029B000010101010101010101010101010000000A
:1029C0000000000000000000000000010101010003
:1029D00000000000000000000000000000000000F7
:1029E00000000000000000000000000000000000E7
:1029F00000000000000000000000000000000000D7
:102A000000000000000000000000000000000000C6
:102A100000000000000000000000000000000000B6
:102A200000000000000000000000000000000000A6
:102A30000000000000000000000000000000000096
:102A40000000000000000000000000000000000086
:102A50000000000000000000000000000000000076
:102A60000000000000000000000000000000000066
:102A70000000000000000000000000000000000056
:102A80000000000000000000000000000000000046
:102A90000000000000000000000000000000000036
:102AA0000000000000000000000000000000000224
:102AB0000101010101010101010101010100000009
:102AC0000000000000000000000000010101010002
:102AD00000000000000000000000000000000000F6
:102AE00000000000000000000000000000000000E6
:102AF00000000000000000000000000000000000D6
:102B000000000000000000000000000000000000C5
:102B100000000000000000000000000000000000B5
:102B200000000000000000000000000000000000A5
:102B30000000000000000000000000000000000095
:102B40000000000000000000000000000000000085
:102B50000000000000000000000000000000000075
:102B60000000000000000000000000000000000065
:102B70000000000000000000000000000000000055
:102B80000000000000000000000000000000000045
:102B90000000000000000000000000000000000035
:102BA0000000000000000000000000000000000223
:102BB0000201010101010101010101010100000007
:102BC0000000000000000000000000010101010001
:102BD00000000000000000000000000000000000F5
:102BE00000000000000000000000000000000000E5
:102BF00000000000000000000000000000000000D5
:102C000000000000000000000000000000000000C4
:102C100000000000000000000000000000000000B4
:102C200000000000000000000000000000000000A4
:102C30000000000000000000000000000000000094
:102C40000000000000000000000000000000000084
:102C50000000000000000000000000000000000074
:102C60000000000000000000000000000000000064
:102C70000000000000000000000000000000000054
:102C80000000000000000000000000000000000044
:102C90000000000000000000000000000000000034
:102CA0000000000000000000000000000000000222
:102CB0000201010101010101010101010100000006
:102CC00000000000000000000000010101010100FF
:102CD00000000000000000000000000000000000F4
:102CE00000000000000000000000000000000000E4
:102CF00000000000000000000000000000000000D4
:102D000000000000000000000000000000000000C3
:102D100000000000000000000000000000000000B3
:102D200000000000000000000000000000000000A3
:102D30000000000000000000000000000000000093
:102D40000000000000000000000000000000000083
:102D50000000000000000000000000000000000073
:102D60000000000000000000000000000000000063
:102D70000000000000000000000000000000000053
:102D80000000000000000000000000000000000043
:102D90000000000000000000000000000000000033
:102DA0000000000000000000000000000000000221
:102DB0000202010101010101010101010100000004
:102DC00000000000000000000000010101010100FE
:102DD00000000000000000000000000000000000F3
:102DE00000000000000000000000000000000000E3
:102DF00000000000000000000000000000000000D3
:102E000000000000000000000000000000000000C2
:102E100000000000000000000000000000000000B2
:102E200000000000000000000000000000000000A2
:102E30000000000000000000000000000000000092
:102E40000000000000000000000000000000000082
:102E50000000000000000000000000000000000072
:102E60000000000000000000000000000000000062
:102E70000000000000000000000000000000000052
:102E80000000000000000000000000000000000042
:102E90000000000000000000000000000000000032
:102EA0000000000000000000000000000000000220
:102EB0000202010101010101010101010100000003
:102EC00000000000000000000000010101010100FD
:102ED00000000000000000000000000000000000F2
:102EE00000000000000000000000000000000000E2
:102EF00000000000000000000000000000000000D2
:102F000000000000000000000000000000000000C1
:102F100000000000000000000000000000000000B1
:102F200000000000000000000000000000000000A1
:102F30000000000000000000000000000000000091
:102F40000000000000000000000000000000000081
:102F50000000000000000000000000000000000071
:102F60000000000000000000000000000000000061
:102F70000000000000000000000000000000000051
:102F80000000000000000000000000000000000041
:102F90000000000000000000000000000000000031
:102FA000000000000000000000000000000000021F
:102FB0000202020101010101010101010100000001
:102FC00000000000000000000000010101010100FC
:102FD00000000000000000000000000000000000F1
:102FE00000000000000000000000000000000000E1
:102FF00000000000000000000000000000000000D1
:1030000000000000000000000000000000000000C0
:1030100000000000000000000000000000000000B0
:1030200000000000000000000000000000000000A0
:103030000000000000000000000000000000000090
:103040000000000000000000000000000000000080
:103050000000000000000000000000000000000070
:103060000000000000000000000000000000000060
:103070000000000000000000000000000000000050
:103080000000000000000000000000000000000040
:103090000000000000000000000000000000000030
:1030A000000000000000000000000000000000021E
:1030B00002020202010101010101010101000000FF
:1030C00000000000000000000000010101010100FB
:1030D00000000000000000000000000000000000F0
:1030E00000000000000000000000000000000000E0
:1030F00000000000000000000000000000000000D0
:1031000000000000000000000000000000000000BF
:1031100000000000000000000000000000000000AF
:10312000000000000000000000000000000000009F
:10313000000000000000000000000000000000008F
:10314000000000000000000000000000000000007F
:10315000000000000000000000000000000000006F
:10316000000000000000000000000000000000005F
:10317000000000000000000000000000000000004F
:10318000000000000000000000000000000000003F
:10319000000000000000000000000000000000002F
:1031A000000000000000000000000000000000021D
:1031B00002020202020101010101010101000000FD
:1031C00000000000000000000001010101010100F9
:1031D00000000000000000000000000000000000EF
:1031E00000000000000000000000000000000000DF
:1031F00000000000000000000000000000000000CF
:1032000000000000000000000000000000000000BE
:1032100000000000000000000000000000000000AE
:10322000000000000000000000000000000000009E
:10323000000000000000000000000000000000008E
:10324000000000000000000000000000000000007E
:10325000000000000000000000000000000000006E
:10326000000000000000000000000000000000005E
:10327000000000000000000000000000000000004E
:10328000000000000000000000000000000000003E
:10329000000000000000000000000000000000002E
:1032A000000000000000000000000000000000021C
:1032B00002020202020101010101010101000000FC
:1032C00000000000000000000001010101010100F8
:1032D00000000000000000000000000000000000EE
:1032E00000000000000000000000000000000000DE
:1032F00000000000000000000000000000000000CE
:1033000000000000000000000000000000000000BD
:1033100000000000000000000000000000000000AD
:10332000000000000000000000000000000000009D
:10333000000000000000000000000000000000008D
:10334000000000000000000000000000000000007D
:10335000000000000000000000000000000000006D
:10336000000000000000000000000000000000005D
:10337000000000000000000000000000000000004D
:10338000000000000000000000000000000000003D
:10339000000000000000000000000000000000002D
:1033A000000000000000000000000000000000021B
:1033B00002020202020201010101010101000000FA
:1033C00000000000000000000001010101010100F7
:1033D00000000000000000000000000000000000ED
:1033E00000000000000000000000000000000000DD
:1033F00000000000000000000000000000000000CD
:1034000000000000000000000000000000000000BC
:1034100000000000000000000000000000000000AC
:10342000000000000000000000000000000000009C
:10343000000000000000000000000000000000008C
:10344000000000000000000000000000000000007C
:10345000000000000000000000000000000000006C
:10346000000000000000000000000000000000005C
:10347000000000000000000000000000000000004C
:10348000000000000000000000000000000000003C
:10349000000000000000000000000000000000002C
:1034A000000000000000000000000000000000021A
:1034B00002020202020202010101010101000000F8
:1034C00000000000000000000101010101010100F5
:1034D00000000000000000000000000000000000EC
:1034E00000000000000000000000000000000000DC
:1034F00000000000000000000000000000000000CC
:1035000000000000000000000000000000000000BB
:1035100000000000000000000000000000000000AB
:10352000000000000000000000000000000000009B
:10353000000000000000000000000000000000008B
:10354000000000000000000000000000000000007B
:10355000000000000000000000000000000000006B
:10356000000000000000000000000000000000005B
:10357000000000000000000000000000000000004B
:10358000000000000000000000000000000000003B
:10359000000000000000000000000000000000002B
:1035A0000000000000000000000000000000000219
:1035B00002020202020202010101010101000000F7
:1035C00000000000000000000101010101010100F4
:1035D00000000000000000000000000000000000EB
:1035E00000000000000000000000000000000000DB
:1035F00000000000000000000000000000000000CB
:1036000000000000000000000000000000000000BA
:1036100000000000000000000000000000000000AA
:10362000000000000000000000000000000000009A
:10363000000000000000000000000000000000008A
:10364000000000000000000000000000000000007A
:10365000000000000000000000000000000000006A
:10366000000000000000000000000000000000005A
:10367000000000000000000000000000000000004A
:10368000000000000000000000000000000000003A
:10369000000000000000000000000000000000002A
:1036A0000000000000000000000000000000000218
:1036B00002020202020202020101010101000000F5
:1036C00000000000000000010101010101010100F2
:1036D00000000000000000000000000000000000EA
:1036E00000000000000000000000000000000000DA
:1036F00000000000000000000000000000000000CA
:1037000000000000000000000000000000000000B9
:1037100000000000000000000000000000000000A9
:103720000000000000000000000000000000000099
:103730000000000000000000000000000000000089
:103740000000000000000000000000000000000079
:103750000000000000000000000000000000000069
:103760000000000000000000000000000000000059
:103770000000000000000000000000000000000049
:103780000000000000000000000000000000000039
:103790000000000000000000000000000000000029
:1037A0000000000000000000000000000000000217
:1037B00002020202020202020201010101000000F3
:1037C00000000000000000010101010101010100F1
:1037D00000000000000000000000000000000000E9
:1037E00000000000000000000000000000000000D9
:1037F00000000000000000000000000000000000C9
:1038000000000000000000000000000000000000B8
:1038100000000000000000000000000000000000A8
:103820000000000000000000000000000000000098
:103830000000000000000000000000000000000088
:103840000000000000000000000000000000000078
:103850000000000000000000000000000000000068
:103860000000000000000000000000000000000058
:103870000000000000000000000000000000000048
:103880000000000000000000000000000000000038
:103890000000000000000000000000000000000028
:1038A0000000000000000000000000000000000216
:1038B00002020202020202020202010101000000F1
:1038C00000000000000000010101010101010100F0
:1038D00000000000000000000000000000000000E8
:1038E00000000000000000000000000000000000D8
:1038F00000000000000000000000000000000000C8
:1039000000000000000000000000000000000000B7
:1039100000000000000000000000000000000000A7
:103920000000000000000000000000000000000097
:103930000000000000000000000000000000000087
:103940000000000000000000000000000000000077
:103950000000000000000000000000000000000067
:103960000000000000000000000000000000000057
:103970000000000000000000000000000000000047
:103980000000000000000000000000000000000037
:103990000000000000000000000000000000000027
:1039A0000000000000000000000000000000000215
:1039B00002020202020202020202010101000000F0
:1039C00000000000000000010101010101010100EF
:1039D00000000000000000000000000000000000E7
:1039E00000000000000000000000000000000000D7
:1039F00000000000000000000000000000000000C7
:103A000000000000000000000000000000000000B6
:103A100000000000000000000000000000000000A6
:103A20000000000000000000000000000000000096
:103A30000000000000000000000000000000000086
:103A40000000000000000000000000000000000076
:103A50000000000000000000000000000000000066
:103A60000000000000000000000000000000000056
:103A70000000000000000000000000000000000046
:103A80000000000000000000000000000000000036
:103A90000000000000000000000000000000000026
:103AA0000000000000000000000000000000000214
:103AB00002020202020202020202010101000000EF
:103AC00000000000000001010101010101010100ED
:103AD00000000000000000000000000000000000E6
:103AE00000000000000000000000000000000000D6
:103AF00000000000000000000000000000000000C6
:103B000000000000000000000000000000000000B5
:103B100000000000000000000000000000000000A5
:103B20000000000000000000000000000000000095
:103B30000000000000000000000000000000000085
:103B40000000000000000000000000000000000075
:103B50000000000000000000000000000000000065
:103B60000000000000000000000000000000000055
:103B70000000000000000000000000000000000045
:103B80000000000000000000000000000000000035
:103B90000000000000000000000000000000000025
:103BA0000000000000000000000000000000000213
:103BB00002020202020202020202020101000000ED
:103BC00000000000000001010101010101010100EC
:103BD00000000000000000000000000000000000E5
:103BE00000000000000000000000000000000000D5
:103BF00000000000000000000000000000000000C5
:103C000000000000000000000000000000000000B4
:103C100000000000000000000000000000000000A4
:103C20000000000000000000000000000000000094
:103C30000000000000000000000000000000000084
:103C40000000000000000000000000000000000074
:103C50000000000000000000000000000000000064
:103C60000000000000000000000000000000000054
:103C70000000000000000000000000000000000044
:103C80000000000000000000000000000000000034
:103C90000000000000000000000000000000000024
:103CA0000000000000000000000000000000000212
:103CB00002020202020202020202020101000000EC
:103CC00000000000000101010101010101010100EA
:103CD00000000000000000000000000000000000E4
:103CE00000000000000000000000000000000000D4
:103CF00000000000000000000000000000000000C4
:103D000000000000000000000000000000000000B3
:103D100000000000000000000000000000000000A3
:103D20000000000000000000000000000000000093
:103D30000000000000000000000000000000000083
:103D40000000000000000000000000000000000073
:103D50000000000000000000000000000000000063
:103D60000000000000000000000000000000000053
:103D70000000000000000000000000000000000043
:103D80000000000000000000000000000000000033
:103D90000000000000000000000000000000000023
:103DA0000000000000000000000000000000000211
:103DB00002020202020202020202020202000000E9
:103DC00000000000000101010101010101010100E9
:103DD00000000000000000000000000000000000E3
:103DE00000000000000000000000000000000000D3
:103DF00000000000000000000000000000000000C3
:103E000000000000000000000000000000000000B2
:103E100000000000000000000000000000000000A2
:103E20000000000000000000000000000000000092
:103E30000000000000000000000000000000000082
:103E40000000000000000000000000000000000072
:103E50000000000000000000000000000000000062
:103E60000000000000000000000000000000000052
:103E70000000000000000000000000000000000042
:103E80000000000000000000000000000000000032
:103E90000000000000000000000000000000000022
:103EA0000000000000000000000000000000000210
:103EB00002020202020202020202020202000000E8
:103EC00000000000000101010101010101010100E8
:103ED00000000000000000000000000000000000E2
:103EE00000000000000000000000000000000000D2
:103EF00000000000000000000000000000000000C2
:103F000000000000000000000000000000000000B1
:103F100000000000000000000000000000000000A1
:103F20000000000000000000000000000000000091
:103F30000000000000000000000000000000000081
:103F40000000000000000000000000000000000071
:103F50000000000000000000000000000000000061
:103F60000000000000000000000000000000000051
:103F70000000000000000000000000000000000041
:103F80000000000000000000000000000000000031
:103F90000000000000000000000000000000000021
:103FA000000000000000000000000000000000020F
:103FB00002020202020202020202020202000000E7
:103FC00000000000010101010101010101010100E6
:103FD00000000000000000000000000000000000E1
:103FE00000000000000000000000000000000000D1
:103FF00000000000000000000000000000000000C1
:1040000000000000000000000000000000000000B0
:1040100000000000000000000000000000000000A0
:104020000000000000000000000000000000000090
:104030000000000000000000000000000000000080
:104040000000000000000000000000000000000070
:104050000000000000000000000000000000000060
:104060000000000000000000000000000000000050
:104070000000000000000000000000000000000040
:104080000000000000000000000000000000000030
:104090000000000000000000000000000000000020
:1040A000000000000000000000000000000000020E
:1040B00002020202020202020202020202000000E6
:1040C00000000000010101010101010101010100E5
:1040D00000000000000000000000000000000000E0
:1040E00000000000000000000000000000000000D0
:1040F00000000000000000000000000000000000C0
:1041000000000000000000000000000000000000AF
:10411000000000000000000000000000000000009F
:10412000000000000000000000000000000000008F
:10413000000000000000000000000000000000007F
:10414000000000000000000000000000000000006F
:10415000000000000000000000000000000000005F
:10416000000000000000000000000000000000004F
:10417000000000000000000000000000000000003F
:10418000000000000000000000000000000000002F
:10419000000000000000000000000000000000001F
:1041A000000000000000000000000000000000020D
:1041B00002020202020202020202020202000000E5
:1041C00000000000010101010101010101010100E4
:1041D00000000000000000000000000000000000DF
:1041E00000000000000000000000000000000000CF
:1041F00000000000000000000000000000000000BF
:1042000000000000000000000000000000000000AE
:10421000000000000000000000000000000000009E
:10422000000000000000000000000000000000008E
:10423000000000000000000000000000000000007E
:10424000000000000000000000000000000000006E
:10425000000000000000000000000000000000005E
:10426000000000000000000000000000000000004E
:10427000000000000000000000000000000000003E
:10428000000000000000000000000000000000002E
:10429000000000000000000000000000000000001E
:1042A000000000000000000000000000000000020C
:1042B00002020202020202020202020202000000E4
:1042C00000000001010101010101010101010100E2
:1042D00000000000000000000000000000000000DE
:1042E00000000000000000000000000000000000CE
:1042F00000000000000000000000000000000000BE
:1043000000000000000000000000000000000000AD
:10431000000000000000000000000000000000009D
:10432000000000000000000000000000000000008D
:10433000000000000000000000000000000000007D
:10434000000000000000000000000000000000006D
:10435000000000000000000000000000000000005D
:10436000000000000000000000000000000000004D
:10437000000000000000000000000000000000003D
:10438000000000000000000000000000000000002D
:10439000000000000000000000000000000000001D
:1043A000000000000000000000000000000000020B
:1043B00002020202020202020202020202000000E3
:1043C00000000001010101010101010101010100E1
:1043D00000000000000000000000000000000000DD
:1043E00000000000000000000000000000000000CD
:1043F00000000000000000000000000000000000BD
:1044000000000000000000000000000000000000AC
:10441000000000000000000000000000000000009C
:10442000000000000000000000000000000000008C
:10443000000000000000000000000000000000007C
:10444000000000000000000000000000000000006C
:10445000000000000000000000000000000000005C
:10446000000000000000000000000000000000004C
:10447000000000000000000000000000000000003C
:10448000000000000000000000000000000000002C
:10449000000000000000000000000000000000001C
:1044A000000000000000000000000000000000020A
:1044B00002020202020202020202020202000000E2
:1044C00000000101010101010101010101010100DF
:1044D00000000000000000000000000000000000DC
:1044E00000000000000000000000000000000000CC
:1044F00000000000000000000000000000000000BC
:1045000000000000000000000000000000000000AB
:10451000000000000000000000000000000000009B
:10452000000000000000000000000000000000008B
:10453000000000000000000000000000000000007B
:10454000000000000000000000000000000000006B
:10455000000000000000000000000000000000005B
:10456000000000000000000000000000000000004B
:10457000000000000000000000000000000000003B
:10458000000000000000000000000000000000002B
:10459000000000000000000000000000000000001B
:1045A0000000000000000000000000000000000209
:1045B00002020202020202020202020202000000E1
:1045C00000000101010101010101010101010100DE
:1045D00000000000000000000000000000000000DB
:1045E00000000000000000000000000000000000CB
:1045F00000000000000000000000000000000000BB
:1046000000000000000000000000000000000000AA
:10461000000000000000000000000000000000009A
:10462000000000000000000000000000000000008A
:10463000000000000000000000000000000000007A
:10464000000000000000000000000000000000006A
:10465000000000000000000000000000000000005A
:10466000000000000000000000000000000000004A
:10467000000000000000000000000000000000003A
:10468000000000000000000000000000000000002A
:10469000000000000000000000000000000000001A
:1046A0000000000000000000000000000000000208
:1046B00002020202020202020202020202000000E0
:1046C00000000101010101010101010101010100DD
:1046D00000000000000000000000000000000000DA
:1046E00000000000000000000000000000000000CA
:1046F00000000000000000000000000000000000BA
:1047000000000000000000000000000000000000A9
:104710000000000000000000000000000000000099
:104720000000000000000000000000000000000089
:104730000000000000000000000000000000000079
:104740000000000000000000000000000000000069
:104750000000000000000000000000000000000059
:104760000000000000000000000000000000000049
:104770000000000000000000000000000000000039
:104780000000000000000000000000000000000029
:104790000000000000000000000000000000000019
:1047A0000000000000000000000000000000000207
:1047B00002020202020202020202020202000000DF
:1047C00000000101010101010101010101010100DC
:1047D00000000000000000000000000000000000D9
:1047E00000000000000000000000000000000000C9
:1047F00000000000000000000000000000000000B9
:1048000000000000000000000000000000000000A8
:104810000000000000000000000000000000000098
:104820000000000000000000000000000000000088
:104830000000000000000000000000000000000078
:104840000000000000000000000000000000000068
:104850000000000000000000000000000000000058
:104860000000000000000000000000000000000048
:104870000000000000000000000000000000000038
:104880000000000000000000000000000000000028
:104890000000000000000000000000000000000018
:1048A0000000000000000000000000000000000206
:1048B00002020202020202020202020202000000DE
:1048C00000010101010101010101010101010100DA
:1048D00000000000000000000000000000000000D8
:1048E00000000000000000000000000000000000C8
:1048F00000000000000000000000000000000000B8
:1049000000000000000000000000000000000000A7
:104910000000000000000000000000000000000097
:104920000000000000000000000000000000000087
:104930000000000000000000000000000000000077
:104940000000000000000000000000000000000067
:104950000000000000000000000000000000000057
:104960000000000000000000000000000000000047
:104970000000000000000000000000000000000037
:104980000000000000000000000000000000000027
:104990000000000000000000000000000000000017
:1049A0000000000000000000000000000000000205
:1049B00002020202020202020202020202000000DD
:1049C00000010101010101010101010101010100D9
:1049D00000000000000000000000000000000000D7
:1049E00000000000000000000000000000000000C7
:1049F00000000000000000000000000000000000B7
:104A000000000000000000000000000000000000A6
:104A10000000000000000000000000000000000096
:104A20000000000000000000000000000000000086
:104A30000000000000000000000000000000000076
:104A40000000000000000000000000000000000066
:104A50000000000000000000000000000000000056
:104A60000000000000000000000000000000000046
:104A70000000000000000000000000000000000036
:104A80000000000000000000000000000000000026
:104A90000000000000000000000000000000000016
:104AA0000000000000000000000000000000000204
:104AB00002020202020202020202020202000000DC
:104AC00000010101010101010101010101010100D8
:104AD00000000000000000000000000000000000D6
:104AE00000000000000000000000000000000000C6
:104AF00000000000000000000000000000000000B6
:104B000000000000000000000000000000000000A5
:104B10000000000000000000000000000000000095
:104B20000000000000000000000000000000000085
:104B30000000000000000000000000000000000075
:104B40000000000000000000000000000000000065
:104B50000000000000000000000000000000000055
:104B60000000000000000000000000000000000045
:104B70000000000000000000000000000000000035
:104B80000000000000000000000000000000000025
:104B90000000000000000000000000000000000015
:104BA0000000000000000000000000000000000203
:104BB00002020202020202020202020202000000DB
:104BC00001010101010101010101010101010100D6
:104BD00000000000000000000000000000000000D5
:104BE00000000000000000000000000000000000C5
:104BF00000000000000000000000000000000000B5
:104C000000000000000000000000000000000000A4
:104C10000000000000000000000000000000000094
:104C20000000000000000000000000000000000084
:104C30000000000000000000000000000000000074
:104C40000000000000000000000000000000000064
:104C50000000000000000000000000000000000054
:104C60000000000000000000000000000000000044
:104C70000000000000000000000000000000000034
:104C80000000000000000000000000000000000024
:104C90000000000000000000000000000000000014
:104CA0000000000000000000000000000000000202
:104CB00002020202020202020202020202000000DA
:104CC00001010101010101010101010101010100D5
:104CD00000000000000000000000000000000000D4
:104CE00000000000000000000000000000000000C4
:104CF00000000000000000000000000000000000B4
:104D000000000000000000000000000000000000A3
:104D10000000000000000000000000000000000093
:104D20000000000000000000000000000000000083
:104D30000000000000000000000000000000000073
:104D40000000000000000000000000000000000063
:104D50000000000000000000000000000000000053
:104D60000000000000000000000000000000000043
:104D70000000000000000000000000000000000033
:104D80000000000000000000000000000000000023
:104D90000000000000000000000000000000000013
:104DA0000000000000000000000000000000000201
:104DB00002020202020202020202020202000000D9
:104DC00001010101010101010101010101010100D4
:104DD00000000000000000000000000000000000D3
:104DE00000000000000000000000000000000000C3
:104DF00000000000000000000000000000000000B3
:104E000000000000000000000000000000000000A2
:104E10000000000000000000000000000000000092
:104E20000000000000000000000000000000000082
:104E30000000000000000000000000000000000072
:104E40000000000000000000000000000000000062
:104E50000000000000000000000000000000000052
:104E60000000000000000000000000000000000042
:104E70000000000000000000000000000000000032
:104E80000000000000000000000000000000000022
:104E90000000000000000000000000000000000012
:104EA0000000000000000000000000000000000200
:104EB00002020202020202020202020202000000D8
:104EC00001010101010101010101010101010100D3
:104ED00000000000000000000000000000000000D2
:104EE00000000000000000000000000000000000C2
:104EF00000000000000000000000000000000000B2
:104F000000000000000000000000000000000000A1
:104F10000000000000000000000000000000000091
:104F20000000000000000000000000000000000081
:104F30000000000000000000000000000000000071
:104F40000000000000000000000000000000000061
:104F50000000000000000000000000000000000051
:104F60000000000000000000000000000000000041
:104F70000000000000000000000000000000000031
:104F80000000000000000000000000000000000021
:104F90000000000000000000000000000000000011
:104FA00000000000000000000000000000000002FF
:104FB00002020202020202020202020202010000D6
:104FC00001010101010101010101010101010100D2
:104FD00000000000000000000000000000000000D1
:104FE00000000000000000000000000000000000C1
:104FF00000000000000000000000000000000000B1
:1050000000000000000000000000000000000000A0
:105010000000000000000000000000000000000090
:105020000000000000000000000000000000000080
:105030000000000000000000000000000000000070
:105040000000000000000000000000000000000060
:105050000000000000000000000000000000000050
:105060000000000000000000000000000000000040
:105070000000000000000000000000000000000030
:105080000000000000000000000000000000000020
:105090000000000000000000000000000000000010
:1050A00000000000000000000000000000000002FE
:1050B00002020202020202020202020202010000D5
:1050C00001010101010101010101010101010100D1
:1050D00000000000000000000000000000000000D0
:1050E00000000000000000000000000000000000C0
:1050F00000000000000000000000000000000000B0
:10510000000000000000000000000000000000009F
:10511000000000000000000000000000000000008F
:10512000000000000000000000000000000000007F
:10513000000000000000000000000000000000006F
:10514000000000000000000000000000000000005F
:10515000000000000000000000000000000000004F
:10516000000000000000000000000000000000003F
:10517000000000000000000000000000000000002F
:10518000000000000000000000000000000000001F
:10519000000000000000000000000000000000000F
:1051A00000000000000000000000000000000002FD
:1051B00002020202020202020202020202020000D3
:1051C00001010101010101010101010101010100D0
:1051D00000000000000000000000000000000000CF
:1051E00000000000000000000000000000000000BF
:1051F00000000000000000000000000000000000AF
:10520000000000000000000000000000000000009E
:10521000000000000000000000000000000000008E
:10522000000000000000000000000000000000007E
:10523000000000000000000000000000000000006E
:10524000000000000000000000000000000000005E
:10525000000000000000000000000000000000004E
:10526000000000000000000000000000000000003E
:10527000000000000000000000000000000000002E
:10528000000000000000000000000000000000001E
:10529000000000000000000000000000000000000E
:1052A00000000000000000000000000000000002FC
:1052B00002020202020202020202020202020000D2
:1052C00001010101010101010101010101010100CF
:1052D00000000000000000000000000000000000CE
:1052E00000000000000000000000000000000000BE
:1052F00000000000000000000000000000000000AE
:10530000000000000000000000000000000000009D
:10531000000000000000000000000000000000008D
:10532000000000000000000000000000000000007D
:10533000000000000000000000000000000000006D
:10534000000000000000000000000000000000005D
:10535000000000000000000000000000000000004D
:10536000000000000000000000000000000000003D
:10537000000000000000000000000000000000002D
:10538000000000000000000000000000000000001D
:10539000000000000000000000000000000000000D
:1053A00000000000000000000000000000000002FB
:1053B00002020202020202020202020202020000D1
:1053C00001010101010101010101010101010100CE
:1053D00000000000000000000000000000000000CD
:1053E00000000000000000000000000000000000BD
:1053F00000000000000000000000000000000000AD
:10540000000000000000000000000000000000009C
:10541000000000000000000000000000000000008C
:10542000000000000000000000000000000000007C
:10543000000000000000000000000000000000006C
:10544000000000000000000000000000000000005C
:10545000000000000000000000000000000000004C
:10546000000000000000000000000000000000003C
:10547000000000000000000000000000000000002C
:10548000000000000000000000000000000000001C
:10549000000000000000000000000000000000000C
:1054A00000000000000000000000000000000002FA
:1054B00002020202020202020202020202020000D0
:1054C00001010101010101010101010101010100CD
:1054D00000000000000000000000000000000000CC
:1054E00000000000000000000000000000000000BC
:1054F00000000000000000000000000000000000AC
:10550000000000000000000000000000000000009B
:10551000000000000000000000000000000000008B
:10552000000000000000000000000000000000007B
:10553000000000000000000000000000000000006B
:10554000000000000000000000000000000000005B
:10555000000000000000000000000000000000004B
:10556000000000000000000000000000000000003B
:10557000000000000000000000000000000000002B
:10558000000000000000000000000000000000001B
:10559000000000000000000000000000000000000B
:1055A00000000000000000000000000000000002F9
:1055B00002020202020202020202020202020000CF
:1055C00000000000000000000000000000000000DB
:1055D00000000000000000000000000000000000CB
:1055E00000000000000000000000000000000000BB
:1055F00000000000000000000000000000000000AB
:10560000000000000000000000000000000000009A
:10561000000000000000000000000000000000008A
:10562000000000000000000000000000000000007A
:10563000000000000000000000000000000000006A
:10564000000000000000000000000000000000005A
:10565000000000000000000000000000000000004A
:10566000000000000000000000000000000000003A
:10567000000000000000000000000000000000002A
:10568000000000000000000000000000000000001A
:10569000000000000000000000000000000000000A
:1056A00000000000000000000000000000000000FA
:1056B0000000000000000000000000000000002AC0
:1056C00000000000000000000000000000000000DA
:1056D00000000000000001000000000000000000C9
:1056E00000000000000000000000000000000000BA
:1056F00000000000000000000000000000000000AA
:105700000000000000000000000000000000000099
:105710000000000000000000000000000000000089
:105720000000000000000000000000000000000079
:105730000000000000000000000000000000000069
:105740000000000000000000000000000000000059
:105750000000000000000000000000000000000049
:105760000000000000000000000000000000000039
:105770000000000000000000000000000000000029
:105780000000000000000000000000000000000019
:105790000000000000000000000000000000000009
:1057A00000000000000000000000000000000000F9
:1057B00000000000000000020000000000000000E7
:1057C00000000000000000000000000000000000D9
:1057D00000000000000001000000000000000000C8
:1057E00000000000000000000000000000000000B9
:1057F00000000000000000000000000000000000A9
:105800000000000000000000000000000000000098
:105810000000000000000000000000000000000088
:105820000000000000000000000000000000000078
:105830000000000000000000000000000000000068
:105840000000000000000000000000000000000058
:105850000000000000000000000000000000000048
:105860000000000000000000000000000000000038
:105870000000000000000000000000000000000028
:105880000000000000000000000000000000000018
:105890000000000000000000000000000000000008
:1058A00000000000000000000000000000000000F8
:1058B00000000000000000020000000000000000E6
:1058C00000000000000000000000000000000000D8
:1058D00000000000000001000000000000000000C7
:1058E00000000000000000000000000000000000B8
:1058F00000000000000000000000000000000000A8
:105900000000000000000000000000000000000097
:105910000000000000000000000000000000000087
:105920000000000000000000000000000000000077
:105930000000000000000000000000000000000067
:105940000000000000000000000000000000000057
:105950000000000000000000000000000000000047
:105960000000000000000000000000000000000037
:105970000000000000000000000000000000000027
:105980000000000000000000000000000000000017
:105990000000000000000000000000000000000007
:1059A00000000000000000000000000000000000F7
:1059B00000000000000000020000000000000000E5
:1059C00000000000000000000000000000000000D7
:1059D00000000000000001000000000000000000C6
:1059E00000000000000000000000000000000000B7
:1059F00000000000000000000000000000000000A7
:105A00000000000000000000000000000000000096
:105A10000000000000000000000000000000000086
:105A20000000000000000000000000000000000076
:105A30000000000000000000000000000000000066
:105A40000000000000000000000000000000000056
:105A50000000000000000000000000000000000046
:105A60000000000000000000000000000000000036
:105A70000000000000000000000000000000000026
:105A80000000000000000000000000000000000016
:105A90000000000000000000000000000000000006
:105AA00000000000000000000000000000000000F6
:105AB00000000000000000020000000000000000E4
:105AC00000000000000000000000000000000000D6
:105AD00000000000000001000000000000000000C5
:105AE00000000000000000000000000000000000B6
:105AF00000000000000000000000000000000000A6
:105B00000000000000000000000000000000000095
